{"contracts/AgriSupplyChain.sol":{"AgriSupplyChain":{"abi":[{"inputs":[],"stateMutability":"nonpayable","type":"constructor"},{"anonymous":false,"inputs":[{"indexed":true,"internalType":"uint256","name":"batchId","type":"uint256"},{"indexed":true,"internalType":"uint256","name":"productId","type":"uint256"},{"indexed":false,"internalType":"string","name":"qrCode","type":"string"}],"name":"BatchCreated","type":"event"},{"anonymous":false,"inputs":[{"indexed":true,"internalType":"uint256","name":"batchId","type":"uint256"},{"indexed":false,"internalType":"string","name":"note","type":"string"},{"indexed":false,"internalType":"address","name":"addedBy","type":"address"}],"name":"BatchNoteAdded","type":"event"},{"anonymous":false,"inputs":[{"indexed":true,"internalType":"uint256","name":"batchId","type":"uint256"},{"indexed":false,"internalType":"int256","name":"temperature","type":"int256"},{"indexed":false,"internalType":"uint256","name":"humidity","type":"uint256"},{"indexed":false,"internalType":"address","name":"recorder","type":"address"}],"name":"EnvironmentDataRecorded","type":"event"},{"anonymous":false,"inputs":[{"indexed":true,"internalType":"uint256","name":"batchId","type":"uint256"},{"indexed":true,"internalType":"address","name":"from","type":"address"},{"indexed":true,"internalType":"address","name":"to","type":"address"},{"indexed":false,"internalType":"enum AgriSupplyChain.Stage","name":"newStage","type":"uint8"}],"name":"OwnershipTransferred","type":"event"},{"anonymous":false,"inputs":[{"indexed":true,"internalType":"address","name":"previousOwner","type":"address"},{"indexed":true,"internalType":"address","name":"newOwner","type":"address"}],"name":"OwnershipTransferred","type":"event"},{"anonymous":false,"inputs":[{"indexed":true,"internalType":"address","name":"participant","type":"address"},{"indexed":false,"internalType":"enum AgriSupplyChain.Role","name":"role","type":"uint8"},{"indexed":false,"internalType":"string","name":"name","type":"string"}],"name":"ParticipantRegistered","type":"event"},{"anonymous":false,"inputs":[{"indexed":true,"internalType":"uint256","name":"productId","type":"uint256"},{"indexed":false,"internalType":"string","name":"productName","type":"string"},{"indexed":true,"internalType":"address","name":"farmer","type":"address"}],"name":"ProductCreated","type":"event"},{"anonymous":false,"inputs":[{"indexed":true,"internalType":"uint256","name":"batchId","type":"uint256"},{"indexed":false,"internalType":"enum AgriSupplyChain.Quality","name":"newQuality","type":"uint8"},{"indexed":false,"internalType":"address","name":"updatedBy","type":"address"}],"name":"QualityUpdated","type":"event"},{"anonymous":false,"inputs":[{"indexed":true,"internalType":"uint256","name":"transactionId","type":"uint256"},{"indexed":true,"internalType":"uint256","name":"batchId","type":"uint256"},{"indexed":true,"internalType":"address","name":"buyer","type":"address"}],"name":"TransactionCompleted","type":"event"},{"inputs":[{"internalType":"uint256","name":"_batchId","type":"uint256"},{"internalType":"string","name":"_note","type":"string"}],"name":"addBatchNote","outputs":[],"stateMutability":"nonpayable","type":"function"},{"inputs":[{"internalType":"uint256","name":"","type":"uint256"},{"internalType":"uint256","name":"","type":"uint256"}],"name":"batchEnvironmentData","outputs":[{"internalType":"uint256","name":"timestamp","type":"uint256"},{"internalType":"int256","name":"temperature","type":"int256"},{"internalType":"uint256","name":"humidity","type":"uint256"},{"internalType":"string","name":"location","type":"string"},{"internalType":"address","name":"recorder","type":"address"},{"internalType":"string","name":"notes","type":"string"}],"stateMutability":"view","type":"function"},{"inputs":[{"internalType":"uint256","name":"","type":"uint256"}],"name":"batches","outputs":[{"internalType":"uint256","name":"batchId","type":"uint256"},{"internalType":"uint256","name":"productId","type":"uint256"},{"internalType":"enum AgriSupplyChain.Stage","name":"currentStage","type":"uint8"},{"internalType":"address","name":"currentOwner","type":"address"},{"internalType":"uint256","name":"timestamp","type":"uint256"},{"internalType":"string","name":"location","type":"string"},{"internalType":"string","name":"notes","type":"string"}],"stateMutability":"view","type":"function"},{"inputs":[{"internalType":"uint256","name":"_transactionId","type":"uint256"}],"name":"completeTransaction","outputs":[],"stateMutability":"payable","type":"function"},{"inputs":[{"internalType":"uint256","name":"_productId","type":"uint256"},{"internalType":"string","name":"_qrCode","type":"string"},{"internalType":"string","name":"_initialLocation","type":"string"}],"name":"createBatch","outputs":[{"internalType":"uint256","name":"","type":"uint256"}],"stateMutability":"nonpayable","type":"function"},{"inputs":[{"internalType":"string","name":"_productName","type":"string"},{"internalType":"string","name":"_variety","type":"string"},{"internalType":"uint256","name":"_quantity","type":"uint256"},{"internalType":"string","name":"_harvestDate","type":"string"},{"internalType":"bool","name":"_isOrganic","type":"bool"},{"internalType":"string[]","name":"_certifications","type":"string[]"}],"name":"createProduct","outputs":[{"internalType":"uint256","name":"","type":"uint256"}],"stateMutability":"nonpayable","type":"function"},{"inputs":[{"internalType":"uint256","name":"_batchId","type":"uint256"},{"internalType":"address","name":"_buyer","type":"address"},{"internalType":"uint256","name":"_price","type":"uint256"},{"internalType":"string","name":"_transactionType","type":"string"}],"name":"createTransaction","outputs":[{"internalType":"uint256","name":"","type":"uint256"}],"stateMutability":"nonpayable","type":"function"},{"inputs":[{"internalType":"address","name":"_participant","type":"address"}],"name":"deactivateParticipant","outputs":[],"stateMutability":"nonpayable","type":"function"},{"inputs":[{"internalType":"string","name":"_qrCode","type":"string"}],"name":"getBatchByQR","outputs":[{"internalType":"uint256","name":"","type":"uint256"}],"stateMutability":"view","type":"function"},{"inputs":[{"internalType":"uint256","name":"_batchId","type":"uint256"}],"name":"getBatchDetails","outputs":[{"internalType":"uint256","name":"batchId","type":"uint256"},{"internalType":"uint256","name":"productId","type":"uint256"},{"internalType":"enum AgriSupplyChain.Stage","name":"currentStage","type":"uint8"},{"internalType":"address","name":"currentOwner","type":"address"},{"internalType":"string","name":"location","type":"string"},{"internalType":"string","name":"notes","type":"string"},{"internalType":"uint256","name":"environmentRecordCount","type":"uint256"}],"stateMutability":"view","type":"function"},{"inputs":[{"internalType":"uint256","name":"_batchId","type":"uint256"}],"name":"getBatchHistory","outputs":[{"internalType":"address[]","name":"owners","type":"address[]"},{"internalType":"string[]","name":"locations","type":"string[]"},{"internalType":"uint256[]","name":"timestamps","type":"uint256[]"}],"stateMutability":"view","type":"function"},{"inputs":[{"internalType":"uint256","name":"_batchId","type":"uint256"},{"internalType":"uint256","name":"_index","type":"uint256"}],"name":"getEnvironmentData","outputs":[{"internalType":"uint256","name":"timestamp","type":"uint256"},{"internalType":"int256","name":"temperature","type":"int256"},{"internalType":"uint256","name":"humidity","type":"uint256"},{"internalType":"string","name":"location","type":"string"},{"internalType":"address","name":"recorder","type":"address"},{"internalType":"string","name":"notes","type":"string"}],"stateMutability":"view","type":"function"},{"inputs":[{"internalType":"uint256","name":"_batchId","type":"uint256"}],"name":"getEnvironmentDataCount","outputs":[{"internalType":"uint256","name":"","type":"uint256"}],"stateMutability":"view","type":"function"},{"inputs":[{"internalType":"uint256","name":"_productId","type":"uint256"}],"name":"getProductInfo","outputs":[{"internalType":"string","name":"name","type":"string"},{"internalType":"string","name":"variety","type":"string"},{"internalType":"uint256","name":"quantity","type":"uint256"},{"internalType":"address","name":"farmer","type":"address"},{"internalType":"enum AgriSupplyChain.Quality","name":"quality","type":"uint8"},{"internalType":"bool","name":"isOrganic","type":"bool"},{"internalType":"string[]","name":"certifications","type":"string[]"}],"stateMutability":"view","type":"function"},{"inputs":[{"internalType":"enum AgriSupplyChain.Role","name":"_role","type":"uint8"}],"name":"getRoleString","outputs":[{"internalType":"string","name":"","type":"string"}],"stateMutability":"pure","type":"function"},{"inputs":[{"internalType":"enum AgriSupplyChain.Stage","name":"_stage","type":"uint8"}],"name":"getStageString","outputs":[{"internalType":"string","name":"","type":"string"}],"stateMutability":"pure","type":"function"},{"inputs":[],"name":"nextBatchId","outputs":[{"internalType":"uint256","name":"","type":"uint256"}],"stateMutability":"view","type":"function"},{"inputs":[],"name":"nextProductId","outputs":[{"internalType":"uint256","name":"","type":"uint256"}],"stateMutability":"view","type":"function"},{"inputs":[],"name":"nextTransactionId","outputs":[{"internalType":"uint256","name":"","type":"uint256"}],"stateMutability":"view","type":"function"},{"inputs":[],"name":"owner","outputs":[{"internalType":"address","name":"","type":"address"}],"stateMutability":"view","type":"function"},{"inputs":[{"internalType":"address","name":"","type":"address"}],"name":"participants","outputs":[{"internalType":"string","name":"name","type":"string"},{"internalType":"string","name":"location","type":"string"},{"internalType":"enum AgriSupplyChain.Role","name":"role","type":"uint8"},{"internalType":"bool","name":"isActive","type":"bool"},{"internalType":"uint256","name":"reputation","type":"uint256"}],"stateMutability":"view","type":"function"},{"inputs":[],"name":"pause","outputs":[],"stateMutability":"nonpayable","type":"function"},{"inputs":[{"internalType":"uint256","name":"","type":"uint256"}],"name":"products","outputs":[{"internalType":"uint256","name":"productId","type":"uint256"},{"internalType":"string","name":"productName","type":"string"},{"internalType":"string","name":"variety","type":"string"},{"internalType":"uint256","name":"quantity","type":"uint256"},{"internalType":"string","name":"harvestDate","type":"string"},{"internalType":"address","name":"farmer","type":"address"},{"internalType":"enum AgriSupplyChain.Quality","name":"currentQuality","type":"uint8"},{"internalType":"bool","name":"isOrganic","type":"bool"}],"stateMutability":"view","type":"function"},{"inputs":[{"internalType":"string","name":"","type":"string"}],"name":"qrCodeToBatch","outputs":[{"internalType":"uint256","name":"","type":"uint256"}],"stateMutability":"view","type":"function"},{"inputs":[{"internalType":"uint256","name":"_batchId","type":"uint256"},{"internalType":"int256","name":"_temperature","type":"int256"},{"internalType":"uint256","name":"_humidity","type":"uint256"},{"internalType":"string","name":"_location","type":"string"},{"internalType":"string","name":"_notes","type":"string"}],"name":"recordEnvironmentData","outputs":[],"stateMutability":"nonpayable","type":"function"},{"inputs":[{"internalType":"string","name":"_name","type":"string"},{"internalType":"string","name":"_location","type":"string"},{"internalType":"enum AgriSupplyChain.Role","name":"_role","type":"uint8"}],"name":"registerParticipant","outputs":[],"stateMutability":"nonpayable","type":"function"},{"inputs":[],"name":"renounceOwnership","outputs":[],"stateMutability":"nonpayable","type":"function"},{"inputs":[{"internalType":"uint256","name":"","type":"uint256"}],"name":"transactions","outputs":[{"internalType":"uint256","name":"transactionId","type":"uint256"},{"internalType":"uint256","name":"batchId","type":"uint256"},{"internalType":"address","name":"from","type":"address"},{"internalType":"address","name":"to","type":"address"},{"internalType":"uint256","name":"timestamp","type":"uint256"},{"internalType":"uint256","name":"price","type":"uint256"},{"internalType":"string","name":"transactionType","type":"string"},{"internalType":"bool","name":"completed","type":"bool"}],"stateMutability":"view","type":"function"},{"inputs":[{"internalType":"uint256","name":"_batchId","type":"uint256"},{"internalType":"address","name":"_newOwner","type":"address"},{"internalType":"enum AgriSupplyChain.Stage","name":"_newStage","type":"uint8"},{"internalType":"string","name":"_newLocation","type":"string"}],"name":"transferBatchOwnership","outputs":[],"stateMutability":"nonpayable","type":"function"},{"inputs":[{"internalType":"address","name":"newOwner","type":"address"}],"name":"transferOwnership","outputs":[],"stateMutability":"nonpayable","type":"function"},{"inputs":[],"name":"unpause","outputs":[],"stateMutability":"nonpayable","type":"function"},{"inputs":[{"internalType":"address","name":"_participant","type":"address"},{"internalType":"uint256","name":"_newReputation","type":"uint256"}],"name":"updateParticipantReputation","outputs":[],"stateMutability":"nonpayable","type":"function"},{"inputs":[{"internalType":"uint256","name":"_batchId","type":"uint256"},{"internalType":"enum AgriSupplyChain.Quality","name":"_newQuality","type":"uint8"},{"internalType":"string","name":"_reason","type":"string"}],"name":"updateQuality","outputs":[],"stateMutability":"nonpayable","type":"function"}],"evm":{"bytecode":{"linkReferences":{},"object":"6080806040523461006e5760008054336001600160a01b0319821681178355916001600160a01b03909116907f8be0079c531659141344cd1fd0a4f28419497f9722a3daafe3b4186f6b6457e09080a360018055600160085560016009556001600a55612ebd90816100748239f35b600080fdfe6040608081526004908136101561001557600080fd5b60009160e08335811c90816309c9a6fa146117fc57816309e69ede146121b55781630e7dce8214611f5b5781630fd599ca14611cbf578163219fa92914611963578163236c0201146118595781633c3f4ac1146117fc5781633f3c0a58146117d15781633f4ba83a1461112c5781634de91a63146117b15781635c8a3d3d1461165e578163715018a614611604578163771526da146113b157816379a85e6c1461125a5781637acc0b201461118d5781637b72b529146111485781638456cb591461112c5781638462a7f81461110c5781638da5cb5b146110e3578163969da0c714610f2d5781639ace38c214610e8f5781639d47dcc014610ce6578163a384497714610c71578163abb326b914610bd8578163b32c4d8d14610b3957508063b56ced5114610942578063c7a8ccb11461084a578063ccc541ac146105c1578063d7ca38f3146105a2578063de97b81c14610559578063f2fde38b14610497578063f5e83e17146101d65763ffd8ddb01461018f57600080fd5b346101d25760203660031901126101d257359160058310156101cf57506101b86101cb92612cba565b905191829160208352602083019061244d565b0390f35b80fd5b8280fd5b50906020908160031936011261049357823590600193600285541461045257600285558286526005845281862060038101805490916001600160a01b039182163381900361041f57600782019384549460ff86166103e8576005840195865434106103ae5760ff19168b179055828a0180548c5298869052868b20600281018054610100600160a81b03191660089490941b610100600160a81b031693909317909255610290908490426003850155541660058301612834565b60068101805490600160401b82101561039b57906102b2918b8201815561281c565b610389578a93600285946102da856102d08897968c899801906129ed565b60074291016128b2565b015416855490828215610380575bf1156103765754803411610327575b505050339154907fd5b4622254a096dc65a09a062622c7aa86f69b4b8d9ec480dc29cf80566ec1208580a4805580f35b8034039134831161036357508680809381938290341461035a575b3390f1156103515780806102f7565b513d85823e3d90fd5b506108fc610342565b634e487b7160e01b885260119052602487fd5b82513d88823e3d90fd5b506108fc6102e8565b634e487b7160e01b8b528a865260248bfd5b634e487b7160e01b8c526041875260248cfd5b885162461bcd60e51b81528089018c90526014602482015273125b9cdd59999a58da595b9d081c185e5b595b9d60621b6044820152606490fd5b875162461bcd60e51b81528088018b90526011602482015270105b1c9958591e4818dbdb5c1b195d1959607a1b6044820152606490fd5b855162461bcd60e51b8152808601899052600d60248201526c2737ba103a343290313abcb2b960991b6044820152606490fd5b83606492519162461bcd60e51b8352820152601f60248201527f5265656e7472616e637947756172643a207265656e7472616e742063616c6c006044820152fd5b8380fd5b50346101d25760203660031901126101d2576104b1612341565b906104ba6125a4565b6001600160a01b0391821692831561050757505082546001600160a01b0319811683178455167f8be0079c531659141344cd1fd0a4f28419497f9722a3daafe3b4186f6b6457e08380a380f35b906020608492519162461bcd60e51b8352820152602660248201527f4f776e61626c653a206e6577206f776e657220697320746865207a65726f206160448201526564647265737360d01b6064820152fd5b50503461059e57602036600319011261059e57600290610577612341565b61057f6125a4565b6001600160a01b031683526020829052822001805461ff001916905580f35b5080fd5b50503461059e578160031936011261059e57602090600a549051908152f35b5091903461059e57606036600319011261059e5782356001600160401b03602435818111610846576105f690369087016122c3565b906044359081116108465761060e90369087016122c3565b933381526020956002875261062e60ff6002878520015460081c1661276b565b3382526002875261065160ff600287852001541661064b81612472565b156127b7565b8382526003875284822060050154336001600160a01b039091160361080b5784519083519188818187019461068781838861231e565b81016006815203019020546107cf5783511561078c579085939291875115156106af906125fc565b8760095498899687956106c1876127f7565b600955868152848d5220858155600181018990556002810180546001600160a81b0319163360081b610100600160a81b031617905592426003850155830190610709916126a4565b6107163360058401612834565b610723906006830161286f565b6107319042906007016128b2565b878651808093865180926107449261231e565b8101600681520301902055835180918782528782016107629161244d565b037ffe35d0d7ff92482c19a430d1864f6dd16db337a4bbb5887794576d11ef3b1e2091a351908152f35b855162461bcd60e51b8152908101889052601760248201527f515220636f64652063616e6e6f7420626520656d7074790000000000000000006044820152606490fd5b855162461bcd60e51b81529081018890526016602482015275515220636f646520616c72656164792065786973747360501b6044820152606490fd5b845162461bcd60e51b815290810187905260156024820152742737ba103a343290383937b23ab1ba1037bbb732b960591b6044820152606490fd5b8480fd5b5091903461059e57602092836003193601126101d257803580151580610937575b610877909593956128e7565b835281528282209161088b60058401612ac9565b936108a4600761089d60068701612b21565b9501612b76565b928151958695606087016060885282518091528360808901930190865b81811061091757505050906108dc9187820384890152612509565b91858303908601528080855193848152019401925b82811061090057505050500390f35b8351855286955093810193928101926001016108f1565b82516001600160a01b031685528a995093850193918501916001016108c1565b50600954811061086b565b5091903461059e57606036600319011261059e576001600160401b0383358181116104935761097490369086016122c3565b906024358181116108465761098c90369087016122c3565b916044359186831015610b35573386526020936002855260ff6002878920015460081c16610afd57825115610ac3576109c7815115156125fc565b85519160a0830190811183821017610ab057916003867fe3564c470dc79d88d220de1a64bc335ec0a928450ce631293691bba84dd9a61197969593610aaa958a528484528184019081528a610a548b860192610a228a612472565b898452610a4a8d606089019460018652600260808b019860648a5233835252209751886126a4565b51600187016126a4565b60028501915190610a6482612472565b610a6d82612472565b60ff61ff0084549251151560081b1692169061ffff191617179055519101558580519484610a9b8796612472565b8552840152339583019061244d565b0390a280f35b634e487b7160e01b885260418952602488fd5b855162461bcd60e51b815280890186905260146024820152734e616d652063616e6e6f7420626520656d70747960601b6044820152606490fd5b855162461bcd60e51b81528089018690526012602482015271105b1c9958591e481c9959da5cdd195c995960721b6044820152606490fd5b8580fd5b90508284346101cf5760203660031901126101cf5790610bca816101cb938635815286602052208054946001820154966002830154610ba5610b8d6008610b8660038801549588016123a7565b96016123a7565b9680519a8b9a8b5260208b0152890160ff8316612565565b60081c6001600160a01b03166060880152608087015260a0860181905285019061244d565b9083820360c085015261244d565b5050346101d257816003193601126101d257610bf2612341565b610bfa6125a4565b6001600160a01b031680845260026020819052838520015490919060081c60ff1615610c355750825260026020526003602435918320015580f35b606490602084519162461bcd60e51b835282015260166024820152755061727469636970616e74206e6f742061637469766560501b6044820152fd5b505091346101cf57610c82366124a9565b9190815260076020528281209081548310156101cf57506101cb91610ca691612572565b50918254926001810154946002820154610cdb6005610cc7600386016123a7565b938501546001600160a01b031694016123a7565b9351968796876124bf565b84939150346104935760203660031901126104935782359081151580610e84575b610d10906128e7565b818552836020528285209083519161014083018381106001600160401b03821117610e71578552805483526001810154956020840196875260028201549760ff891698878601996005811015610e5e578a526060860160018060a01b03809260081c16815260038501546080880152610dd06008610d8f8688016123a7565b9660a08a01978852610da360058201612ac9565b60c08b0152610db460068201612b21565b898b0152610dc460078201612b76565b6101008b0152016123a7565b9661012081019788525199519a51936005851015610e4b57509288610e4198979593610e2093610e339896511694519651988152600760205220549880519b8c9b8c5260208c01528a0190612565565b606088015280608088015286019061244d565b9084820360a086015261244d565b9060c08301520390f35b634e487b7160e01b845260219052602483fd5b634e487b7160e01b835260218452602483fd5b634e487b7160e01b885260418752602488fd5b506009548210610d07565b90508284346101cf5760203660031901126101cf5781908435815260056020522091610f2283549360018101549560018060a01b03908160028401541691600384015416908301549060058401549260ff6007610eee600688016123a7565b960154169780519a8b9a8b5260208b01528901526060880152608087015260a08601526101008060c087015285019061244d565b911515908301520390f35b5050346101d25760a03660031901126101d25780359160243591604435906001600160401b036064358181116110df57610f6a90369084016122c3565b906084359081116110df57610f8290369084016122c3565b903388526002602052610fa060ff6002878b20015460081c1661276b565b861515806110d4575b610fb2906128e7565b610fbe815115156125fc565b845192610fca84612256565b428452602084019187835286850186815260608601918252608086019333855260a087019586528a8c526007602052888c20805490600160401b8210156110c1579061101b91600182018155612572565b9790976110af57936110716005947f8e6c88bf7b7f998fb55ce029e1c5639e9d4fd1c8aad83ea1a90cd20f148add2d9c9a989461109c989460609d9b9851895551600189015551600288015551600387016126a4565b84019060018060a01b039051166bffffffffffffffffffffffff60a01b8254161790555191016126a4565b815192835260208301523390820152a280f35b634e487b7160e01b8d528c855260248dfd5b634e487b7160e01b8e526041865260248efd5b506009548710610fa9565b8780fd5b5050503461059e578160031936011261059e57905490516001600160a01b039091168152602090f35b5050503461059e578160031936011261059e576020906009549051908152f35b84346101cf57806003193601126101cf576111456125a4565b80f35b5050346101d25760203660031901126101d25760209282913580151580611182575b611173906128e7565b81526007845220549051908152f35b50600954811061116a565b91939050346101cf5760203660031901126101cf578290843581526003602052209060ff82549361122e6111c3600186016123a7565b966111d0600287016123a7565b9561121b60056111e660038401549484016123a7565b92015494868660a01c169861120e82519c8d9c8d5260208d61010091829101528d019061244d565b918b8303908c015261244d565b916060890152878203608089015261244d565b6001600160a01b03821660a08701529361124781612472565b60c086015260a81c161515908301520390f35b929190503461049357602036600319011261049357803584526003602052818420938251906101208201908282106001600160401b0383111761139e57508352845481526101cb9291906112b0600187016123a7565b9560208201968752856112c5600283016123a7565b978584019889526112e36003840154956060860196875284016123a7565b608085015261137560058401549360a0860192610100611335600660018060a01b0394858a16885260ff808b60a01c169960c08d019a61132281612472565b8b528c019a60a81c1615158a5201612b21565b9701968752519a51965192511692519361134e85612472565b51151594519561136788519b8b8d9c8d528c019061244d565b908a820360208c015261244d565b95880152606087015261138781612472565b608086015260a085015283820360c0850152612509565b634e487b7160e01b815260418452602490fd5b8285853461059e57606036600319011261059e5782359060243584811015610493576044356001600160401b038111610846576113f190369087016122c3565b9433855260029060209180835261141260ff82878a20015460081c1661276b565b851515806115f9575b611424906128e7565b85875281835284872081015460081c6001600160a01b031633149081156115d6575b81156115b5575b5015611575578596857f149d92e4bf796c3e2a82ac345ffec37f4a260d4bc732ab4e6792f5bc971a538d9697528183526001858920015488526003835260058589200161149985612472565b805460ff60a01b191660a086901b60ff60a01b1617905580516114d0575b50508251916114c581612472565b82523390820152a280f35b61156e9161155e6018611501938a8c528387526008898d2001906114f389612be8565b8a519687938a85019061296a565b750103e1028bab0b634ba3c903ab83230ba32b2103a37960551b8152611530825180938c60168501910161231e565b016101d160f51b601682015261154e825180938b878501910161231e565b01036007198101855201836122a2565b87895283526008858920016126a4565b86806114b7565b8160649285519262461bcd60e51b845283015260248201527f4e6f7420617574686f72697a656420746f20757064617465207175616c6974796044820152fd5b905033875280835260ff818689200154166115cf81612472565b148861144d565b9050338752808352600160ff82878a200154166115f281612472565b1490611446565b50600954861061141b565b84346101cf57806003193601126101cf5761161d6125a4565b80546001600160a01b03198116825581906001600160a01b03167f8be0079c531659141344cd1fd0a4f28419497f9722a3daafe3b4186f6b6457e08280a380f35b5050346101d257816003193601126101d2578035916024356001600160401b0381116108465761169190369084016122c3565b91338552602090600282526116b160ff6002858920015460081c1661276b565b841515806117a6575b6116c3906128e7565b83511561176e579061174f6117147f60d2710f994a966e6a74a13b688bd849c20bb765ebad645fd9f58de9e454d99595949387895280845261173f60036008878c200187519485918883019061296a565b620103e160ed1b815289519061172f828583018b8e0161231e565b0103601c198101855201836122a2565b87895283526008848920016126a4565b611762825193838594855284019061244d565b9033908301520390a280f35b915162461bcd60e51b81529182015260146024820152734e6f74652063616e6e6f7420626520656d70747960601b6044820152606490fd5b5060095485106116ba565b5050503461059e578160031936011261059e576020906008549051908152f35b505091346101cf5760203660031901126101cf578235928310156101cf57506101b86101cb92612da9565b505091346101cf5760203660031901126101cf578235906001600160401b0382116101cf575060206118358194611847933691016122c3565b8184519382858094519384920161231e565b81016006815203019020549051908152f35b505091346101cf5761186a366124a9565b919080151580611958575b61187e906128e7565b808252600760205283822054831015611925579183826101cb946118a89452600760205220612572565b50918051906118b682612256565b83548252600184015493602083019485526002810154958284019687526118df600383016123a7565b60608501908152908201546001600160a01b039081166080860190815292611909906005016123a7565b948560a0820152519651975191519251169251968796876124bf565b835162461bcd60e51b8152602081870152600d60248201526c092dcecc2d8d2c840d2dcc8caf609b1b6044820152606490fd5b506009548110611875565b8285853461059e5760c036600319011261059e576001600160401b0391833583811161059e5761199690369086016122c3565b9060249485358581116101d2576119b090369083016122c3565b9160643586811161059e576119c890369084016122c3565b956084358015158091036101d25760a43598828a11610493573660238b0112156104935789850135916119fa83612492565b93611a078a5195866122a2565b83855260209b8c86019084829660051b82010192368411611cbb57858201925b848410611c9257505050505033855260028b52611a4f60ff60028b8820015460081c1661276b565b33855260028b52611a6c60ff60028b882001541661064b81612472565b875115611c5057604435908115611c0e576008549a611a8a8c6127f7565b6008558b875260038d528a8720928c84556001998b8b860190611aac916126a4565b611ab990600286016126a4565b6003840155611aca908884016126a4565b6005820180546001600160b01b0319163361ffff60a01b19161760a89290921b60ff60a81b16919091179055925194600690930192600160401b8611611bfd5750508154848355808510611b8b575b509082528782209088905b848410611b6e5750878787827faf6ffb6277511513e7d579327cc1fc57f0266df2fb11a60b13487b8c9cd2c388835186815280611b6533958983019061244d565b0390a351908152f35b859181611b7d849351866126a4565b019201920191908890611b24565b82845285858b862092830192015b828110611ba7575050611b19565b85611bb2825461236d565b80611bc2575b5050018690611b99565b8d601f808311600114611bdc5750505081555b858d611bb8565b611bf4918585528420920160051c8201858301612648565b81835555611bd5565b634e487b7160e01b85526041905283fd5b895162461bcd60e51b81528088018d9052601f818501527f5175616e74697479206d7573742062652067726561746572207468616e2030006044820152606490fd5b885162461bcd60e51b81528087018c9052601c818401527f50726f64756374206e616d652063616e6e6f7420626520656d707479000000006044820152606490fd5b81843511611cb7578f8091611cac368a88358801016122c3565b815201930192611a27565b8980fd5b8880fd5b505090346101d25760803660031901126101d2578135611cdd612357565b91604435906005821015610b35576064356001600160401b038111611f5757611d0990369087016122c3565b9083151580611f4c575b611d1c906128e7565b83875260208681528188206002908101546001600160a01b03979294919290611d4b9060081c89163314612926565b338a52828552611d6560ff84868d20015460081c1661276b565b87811698898b5283865260ff84868d20015460081c1615611f0957878b5280865260ff84868d200154166005811015611ebf578714611ed257878b5280865260ff84868d200154169860058a1015611ebf5760ff8816998a1115611e7c5790839182511515611dd3906125fc565b898d52818852868d209586018054610100600160a81b03198116600887811b610100600160a81b03169190911783551c9091169a815460ff1916179055611e1c919085016126a4565b426003840155611e2f9060058401612834565b611e3c906006830161286f565b611e4a9042906007016128b2565b519182611e5691612565565b7f0d9d3ad1299833596bec6138aae47314cbb71fb92c7582abed06e22840593ad491a480f35b855162461bcd60e51b8152808301889052601b60248201527f5374616765206d7573742070726f677265737320666f727761726400000000006044820152606490fd5b634e487b7160e01b8c526021825260248cfd5b845162461bcd60e51b815290810186905260116024820152705374616765206d757374206368616e676560781b6044820152606490fd5b845162461bcd60e51b8152908101869052601860248201527f4e6577206f776e6572206e6f74207265676973746572656400000000000000006044820152606490fd5b506009548410611d13565b8680fd5b828486346101cf5760803660031901126101cf57823592611f7a612357565b94604435606435926001600160401b0393848111610b3557611f9f90369083016122c3565b92871515806121aa575b611fb2906128e7565b87865260208281528787206002015490996001600160a01b0391829190611fdf9060081c83163314612926565b169081885260028b5260ff60028a8a20015460081c161561217057841561212d578551156120ec57600a54996120148b6127f7565b600a558951976101008901908111898210176120d957908a8a8e8e95948352858c52808c01938452828c019533875260608d0197885260808d0198428a528d60a081019c8d5260c0019c8d528d019d8e5282526005905220985189555160018901558060028901925116916bffffffffffffffffffffffff60a01b9283825416179055600388019251169082541617905551908401555160058301555160068201906120bf916126a4565b6007019051151560ff198254169060ff1617905551908152f35b634e487b7160e01b8a526041865260248afd5b6064848c808c519262461bcd60e51b845283015260248201527f5472616e73616374696f6e20747970652063616e6e6f7420626520656d7074796044820152fd5b885162461bcd60e51b81528085018c9052601c60248201527f5072696365206d7573742062652067726561746572207468616e2030000000006044820152606490fd5b885162461bcd60e51b81528085018c90526014602482015273109d5e595c881b9bdd081c9959da5cdd195c995960621b6044820152606490fd5b506009548810611fa9565b5050503461059e57602036600319011261059e576122279181906001600160a01b036121df612341565b168152600260205220906121f2826123a7565b9160ff612201600183016123a7565b91600281015490612235600384841692015494865198899860a08a5260a08a019061244d565b9088820360208a015261244d565b9461223f82612472565b86015260081c161515606084015260808301520390f35b60c081019081106001600160401b0382111761227157604052565b634e487b7160e01b600052604160045260246000fd5b604081019081106001600160401b0382111761227157604052565b90601f801991011681019081106001600160401b0382111761227157604052565b81601f82011215612319578035906001600160401b03821161227157604051926122f7601f8401601f1916602001856122a2565b8284526020838301011161231957816000926020809301838601378301015290565b600080fd5b60005b8381106123315750506000910152565b8181015183820152602001612321565b600435906001600160a01b038216820361231957565b602435906001600160a01b038216820361231957565b90600182811c9216801561239d575b602083101461238757565b634e487b7160e01b600052602260045260246000fd5b91607f169161237c565b90604051918260008254926123bb8461236d565b90818452600194858116908160001461242a57506001146123e7575b50506123e5925003836122a2565b565b9093915060005260209081600020936000915b8183106124125750506123e5935082010138806123d7565b855488840185015294850194879450918301916123fa565b9150506123e594506020925060ff191682840152151560051b82010138806123d7565b906020916124668151809281855285808601910161231e565b601f01601f1916010190565b6004111561247c57565b634e487b7160e01b600052602160045260246000fd5b6001600160401b0381116122715760051b60200190565b6040906003190112612319576004359060243590565b926124e79261250697959285526020850152604084015260c0606084015260c083019061244d565b6001600160a01b03909316608082015280830360a0919091015261244d565b90565b908082519081815260208091019281808460051b8301019501936000915b8483106125375750505050505090565b9091929394958480612555600193601f198682030187528a5161244d565b9801930193019194939290612527565b90600582101561247c5752565b805482101561258e576000526006602060002091020190600090565b634e487b7160e01b600052603260045260246000fd5b6000546001600160a01b031633036125b857565b606460405162461bcd60e51b815260206004820152602060248201527f4f776e61626c653a2063616c6c6572206973206e6f7420746865206f776e65726044820152fd5b1561260357565b60405162461bcd60e51b815260206004820152601860248201527f4c6f636174696f6e2063616e6e6f7420626520656d70747900000000000000006044820152606490fd5b818110612653575050565b60008155600101612648565b9190601f811161266e57505050565b6123e5926000526020600020906020601f840160051c8301931061269a575b601f0160051c0190612648565b909150819061268d565b91909182516001600160401b038111612271576126cb816126c5845461236d565b8461265f565b602080601f83116001146127075750819293946000926126fc575b50508160011b916000199060031b1c1916179055565b0151905038806126e6565b90601f198316958460005282600020926000905b8882106127535750508360019596971061273a575b505050811b019055565b015160001960f88460031b161c19169055388080612730565b8060018596829496860151815501950193019061271b565b1561277257565b60405162461bcd60e51b815260206004820152601c60248201527f4e6f7420612072656769737465726564207061727469636970616e74000000006044820152606490fd5b156127be57565b60405162461bcd60e51b8152602060048201526011602482015270556e617574686f72697a656420726f6c6560781b6044820152606490fd5b60001981146128065760010190565b634e487b7160e01b600052601160045260246000fd5b805482101561258e5760005260206000200190600090565b8054600160401b811015612271576128519160018201815561281c565b819291549060031b9160018060a01b03809116831b921b1916179055565b8054600160401b8110156122715761288c9160018201815561281c565b91909161289c576123e5916126a4565b634e487b7160e01b600052600060045260246000fd5b8054600160401b811015612271576128cf9160018201815561281c565b819291549060031b91821b91600019901b1916179055565b156128ee57565b60405162461bcd60e51b815260206004820152601060248201526f125b9d985b1a590818985d18da08125160821b6044820152606490fd5b1561292d57565b60405162461bcd60e51b81526020600482015260156024820152742737ba103a34329031bab93932b73a1037bbb732b960591b6044820152606490fd5b6000929181546129798161236d565b926001918083169081156129d25750600114612996575b50505050565b90919293945060005260209081600020906000915b8583106129c15750505050019038808080612990565b8054858401529183019181016129ab565b60ff1916845250505081151590910201915038808080612990565b90808214612ac5576129ff815461236d565b906001600160401b038211612271578190612a2482612a1e865461236d565b8661265f565b600090601f8311600114612a5a57600092612a4f5750508160011b916000199060031b1c1916179055565b0154905038806126e6565b81526020808220858352818320935090601f1985169083905b828210612aac575050908460019594939210612a9357505050811b019055565b015460001960f88460031b161c19169055388080612730565b8495819295850154815560018091019601940190612a73565b5050565b9060405191828154918282526020928383019160005283600020936000905b828210612afe575050506123e5925003836122a2565b85546001600160a01b031684526001958601958895509381019390910190612ae8565b908154612b2d81612492565b92612b3b60405194856122a2565b818452600090815260208082208186015b848410612b5a575050505050565b6001838192612b68856123a7565b815201920193019290612b4c565b9060405191828154918282526020928383019160005283600020936000905b828210612bab575050506123e5925003836122a2565b855484526001958601958895509381019390910190612b95565b60405190612bd282612287565b60078252662ab735b737bbb760c91b6020830152565b612bf181612472565b8015612c9457612c0081612472565b60018114612c7357612c1181612472565b60028114612c525780612c25600392612472565b14612c3257612506612bc5565b604051612c3e81612287565b60048152632837b7b960e11b602082015290565b50604051612c5f81612287565b60048152632330b4b960e11b602082015290565b50604051612c8081612287565b600481526311dbdbd960e21b602082015290565b50604051612ca181612287565b6009815268115e18d95b1b195b9d60ba1b602082015290565b600581101561247c578015612d835760018114612d5d5760028114612d365760038114612d1057600414612cf057612506612bc5565b604051612cfc81612287565b600481526314dbdb1960e21b602082015290565b50604051612d1d81612287565b600981526811195b1a5d995c995960ba1b602082015290565b50604051612d4381612287565b600a815269125b88151c985b9cda5d60b21b602082015290565b50604051612d6a81612287565b6009815268141c9bd8d95cdcd95960ba1b602082015290565b50604051612d9081612287565b600981526812185c9d995cdd195960ba1b602082015290565b612db281612472565b8015612e6457612dc181612472565b60018114612e3f57612dd281612472565b60028114612e175780612de6600392612472565b14612df357612506612bc5565b604051612dff81612287565b60088152672932ba30b4b632b960c11b602082015290565b50604051612e2481612287565b600b81526a2234b9ba3934b13aba37b960a91b602082015290565b50604051612e4c81612287565b600881526729bab8383634b2b960c11b602082015290565b50604051612e7181612287565b60068152652330b936b2b960d11b60208201529056fea2646970667358221220e18298e7ce7874a487deb72e0301207c53cd2e62643cdfd0e48d41fc7be9441c64736f6c63430008130033","opcodes":"PUSH1 0x80 DUP1 PUSH1 0x40 MSTORE CALLVALUE PUSH2 0x6E JUMPI PUSH1 0x0 DUP1 SLOAD CALLER PUSH1 0x1 PUSH1 0x1 PUSH1 0xA0 SHL SUB NOT DUP3 AND DUP2 OR DUP4 SSTORE SWAP2 PUSH1 0x1 PUSH1 0x1 PUSH1 0xA0 SHL SUB SWAP1 SWAP2 AND SWAP1 PUSH32 0x8BE0079C531659141344CD1FD0A4F28419497F9722A3DAAFE3B4186F6B6457E0 SWAP1 DUP1 LOG3 PUSH1 0x1 DUP1 SSTORE PUSH1 0x1 PUSH1 0x8 SSTORE PUSH1 0x1 PUSH1 0x9 SSTORE PUSH1 0x1 PUSH1 0xA SSTORE PUSH2 0x2EBD SWAP1 DUP2 PUSH2 0x74 DUP3 CODECOPY RETURN JUMPDEST PUSH1 0x0 DUP1 REVERT INVALID PUSH1 0x40 PUSH1 0x80 DUP2 MSTORE PUSH1 0x4 SWAP1 DUP2 CALLDATASIZE LT ISZERO PUSH2 0x15 JUMPI PUSH1 0x0 DUP1 REVERT JUMPDEST PUSH1 0x0 SWAP2 PUSH1 0xE0 DUP4 CALLDATALOAD DUP2 SHR SWAP1 DUP2 PUSH4 0x9C9A6FA EQ PUSH2 0x17FC JUMPI DUP2 PUSH4 0x9E69EDE EQ PUSH2 0x21B5 JUMPI DUP2 PUSH4 0xE7DCE82 EQ PUSH2 0x1F5B JUMPI DUP2 PUSH4 0xFD599CA EQ PUSH2 0x1CBF JUMPI DUP2 PUSH4 0x219FA929 EQ PUSH2 0x1963 JUMPI DUP2 PUSH4 0x236C0201 EQ PUSH2 0x1859 JUMPI DUP2 PUSH4 0x3C3F4AC1 EQ PUSH2 0x17FC JUMPI DUP2 PUSH4 0x3F3C0A58 EQ PUSH2 0x17D1 JUMPI DUP2 PUSH4 0x3F4BA83A EQ PUSH2 0x112C JUMPI DUP2 PUSH4 0x4DE91A63 EQ PUSH2 0x17B1 JUMPI DUP2 PUSH4 0x5C8A3D3D EQ PUSH2 0x165E JUMPI DUP2 PUSH4 0x715018A6 EQ PUSH2 0x1604 JUMPI DUP2 PUSH4 0x771526DA EQ PUSH2 0x13B1 JUMPI DUP2 PUSH4 0x79A85E6C EQ PUSH2 0x125A JUMPI DUP2 PUSH4 0x7ACC0B20 EQ PUSH2 0x118D JUMPI DUP2 PUSH4 0x7B72B529 EQ PUSH2 0x1148 JUMPI DUP2 PUSH4 0x8456CB59 EQ PUSH2 0x112C JUMPI DUP2 PUSH4 0x8462A7F8 EQ PUSH2 0x110C JUMPI DUP2 PUSH4 0x8DA5CB5B EQ PUSH2 0x10E3 JUMPI DUP2 PUSH4 0x969DA0C7 EQ PUSH2 0xF2D JUMPI DUP2 PUSH4 0x9ACE38C2 EQ PUSH2 0xE8F JUMPI DUP2 PUSH4 0x9D47DCC0 EQ PUSH2 0xCE6 JUMPI DUP2 PUSH4 0xA3844977 EQ PUSH2 0xC71 JUMPI DUP2 PUSH4 0xABB326B9 EQ PUSH2 0xBD8 JUMPI DUP2 PUSH4 0xB32C4D8D EQ PUSH2 0xB39 JUMPI POP DUP1 PUSH4 0xB56CED51 EQ PUSH2 0x942 JUMPI DUP1 PUSH4 0xC7A8CCB1 EQ PUSH2 0x84A JUMPI DUP1 PUSH4 0xCCC541AC EQ PUSH2 0x5C1 JUMPI DUP1 PUSH4 0xD7CA38F3 EQ PUSH2 0x5A2 JUMPI DUP1 PUSH4 0xDE97B81C EQ PUSH2 0x559 JUMPI DUP1 PUSH4 0xF2FDE38B EQ PUSH2 0x497 JUMPI DUP1 PUSH4 0xF5E83E17 EQ PUSH2 0x1D6 JUMPI PUSH4 0xFFD8DDB0 EQ PUSH2 0x18F JUMPI PUSH1 0x0 DUP1 REVERT JUMPDEST CALLVALUE PUSH2 0x1D2 JUMPI PUSH1 0x20 CALLDATASIZE PUSH1 0x3 NOT ADD SLT PUSH2 0x1D2 JUMPI CALLDATALOAD SWAP2 PUSH1 0x5 DUP4 LT ISZERO PUSH2 0x1CF JUMPI POP PUSH2 0x1B8 PUSH2 0x1CB SWAP3 PUSH2 0x2CBA JUMP JUMPDEST SWAP1 MLOAD SWAP2 DUP3 SWAP2 PUSH1 0x20 DUP4 MSTORE PUSH1 0x20 DUP4 ADD SWAP1 PUSH2 0x244D JUMP JUMPDEST SUB SWAP1 RETURN JUMPDEST DUP1 REVERT JUMPDEST DUP3 DUP1 REVERT JUMPDEST POP SWAP1 PUSH1 0x20 SWAP1 DUP2 PUSH1 0x3 NOT CALLDATASIZE ADD SLT PUSH2 0x493 JUMPI DUP3 CALLDATALOAD SWAP1 PUSH1 0x1 SWAP4 PUSH1 0x2 DUP6 SLOAD EQ PUSH2 0x452 JUMPI PUSH1 0x2 DUP6 SSTORE DUP3 DUP7 MSTORE PUSH1 0x5 DUP5 MSTORE DUP2 DUP7 KECCAK256 PUSH1 0x3 DUP2 ADD DUP1 SLOAD SWAP1 SWAP2 PUSH1 0x1 PUSH1 0x1 PUSH1 0xA0 SHL SUB SWAP2 DUP3 AND CALLER DUP2 SWAP1 SUB PUSH2 0x41F JUMPI PUSH1 0x7 DUP3 ADD SWAP4 DUP5 SLOAD SWAP5 PUSH1 0xFF DUP7 AND PUSH2 0x3E8 JUMPI PUSH1 0x5 DUP5 ADD SWAP6 DUP7 SLOAD CALLVALUE LT PUSH2 0x3AE JUMPI PUSH1 0xFF NOT AND DUP12 OR SWAP1 SSTORE DUP3 DUP11 ADD DUP1 SLOAD DUP13 MSTORE SWAP9 DUP7 SWAP1 MSTORE DUP7 DUP12 KECCAK256 PUSH1 0x2 DUP2 ADD DUP1 SLOAD PUSH2 0x100 PUSH1 0x1 PUSH1 0xA8 SHL SUB NOT AND PUSH1 0x8 SWAP5 SWAP1 SWAP5 SHL PUSH2 0x100 PUSH1 0x1 PUSH1 0xA8 SHL SUB AND SWAP4 SWAP1 SWAP4 OR SWAP1 SWAP3 SSTORE PUSH2 0x290 SWAP1 DUP5 SWAP1 TIMESTAMP PUSH1 0x3 DUP6 ADD SSTORE SLOAD AND PUSH1 0x5 DUP4 ADD PUSH2 0x2834 JUMP JUMPDEST PUSH1 0x6 DUP2 ADD DUP1 SLOAD SWAP1 PUSH1 0x1 PUSH1 0x40 SHL DUP3 LT ISZERO PUSH2 0x39B JUMPI SWAP1 PUSH2 0x2B2 SWAP2 DUP12 DUP3 ADD DUP2 SSTORE PUSH2 0x281C JUMP JUMPDEST PUSH2 0x389 JUMPI DUP11 SWAP4 PUSH1 0x2 DUP6 SWAP5 PUSH2 0x2DA DUP6 PUSH2 0x2D0 DUP9 SWAP8 SWAP7 DUP13 DUP10 SWAP9 ADD SWAP1 PUSH2 0x29ED JUMP JUMPDEST PUSH1 0x7 TIMESTAMP SWAP2 ADD PUSH2 0x28B2 JUMP JUMPDEST ADD SLOAD AND DUP6 SLOAD SWAP1 DUP3 DUP3 ISZERO PUSH2 0x380 JUMPI JUMPDEST CALL ISZERO PUSH2 0x376 JUMPI SLOAD DUP1 CALLVALUE GT PUSH2 0x327 JUMPI JUMPDEST POP POP POP CALLER SWAP2 SLOAD SWAP1 PUSH32 0xD5B4622254A096DC65A09A062622C7AA86F69B4B8D9EC480DC29CF80566EC120 DUP6 DUP1 LOG4 DUP1 SSTORE DUP1 RETURN JUMPDEST DUP1 CALLVALUE SUB SWAP2 CALLVALUE DUP4 GT PUSH2 0x363 JUMPI POP DUP7 DUP1 DUP1 SWAP4 DUP2 SWAP4 DUP3 SWAP1 CALLVALUE EQ PUSH2 0x35A JUMPI JUMPDEST CALLER SWAP1 CALL ISZERO PUSH2 0x351 JUMPI DUP1 DUP1 PUSH2 0x2F7 JUMP JUMPDEST MLOAD RETURNDATASIZE DUP6 DUP3 RETURNDATACOPY RETURNDATASIZE SWAP1 REVERT JUMPDEST POP PUSH2 0x8FC PUSH2 0x342 JUMP JUMPDEST PUSH4 0x4E487B71 PUSH1 0xE0 SHL DUP9 MSTORE PUSH1 0x11 SWAP1 MSTORE PUSH1 0x24 DUP8 REVERT JUMPDEST DUP3 MLOAD RETURNDATASIZE DUP9 DUP3 RETURNDATACOPY RETURNDATASIZE SWAP1 REVERT JUMPDEST POP PUSH2 0x8FC PUSH2 0x2E8 JUMP JUMPDEST PUSH4 0x4E487B71 PUSH1 0xE0 SHL DUP12 MSTORE DUP11 DUP7 MSTORE PUSH1 0x24 DUP12 REVERT JUMPDEST PUSH4 0x4E487B71 PUSH1 0xE0 SHL DUP13 MSTORE PUSH1 0x41 DUP8 MSTORE PUSH1 0x24 DUP13 REVERT JUMPDEST DUP9 MLOAD PUSH3 0x461BCD PUSH1 0xE5 SHL DUP2 MSTORE DUP1 DUP10 ADD DUP13 SWAP1 MSTORE PUSH1 0x14 PUSH1 0x24 DUP3 ADD MSTORE PUSH20 0x125B9CDD59999A58DA595B9D081C185E5B595B9D PUSH1 0x62 SHL PUSH1 0x44 DUP3 ADD MSTORE PUSH1 0x64 SWAP1 REVERT JUMPDEST DUP8 MLOAD PUSH3 0x461BCD PUSH1 0xE5 SHL DUP2 MSTORE DUP1 DUP9 ADD DUP12 SWAP1 MSTORE PUSH1 0x11 PUSH1 0x24 DUP3 ADD MSTORE PUSH17 0x105B1C9958591E4818DBDB5C1B195D1959 PUSH1 0x7A SHL PUSH1 0x44 DUP3 ADD MSTORE PUSH1 0x64 SWAP1 REVERT JUMPDEST DUP6 MLOAD PUSH3 0x461BCD PUSH1 0xE5 SHL DUP2 MSTORE DUP1 DUP7 ADD DUP10 SWAP1 MSTORE PUSH1 0xD PUSH1 0x24 DUP3 ADD MSTORE PUSH13 0x2737BA103A343290313ABCB2B9 PUSH1 0x99 SHL PUSH1 0x44 DUP3 ADD MSTORE PUSH1 0x64 SWAP1 REVERT JUMPDEST DUP4 PUSH1 0x64 SWAP3 MLOAD SWAP2 PUSH3 0x461BCD PUSH1 0xE5 SHL DUP4 MSTORE DUP3 ADD MSTORE PUSH1 0x1F PUSH1 0x24 DUP3 ADD MSTORE PUSH32 0x5265656E7472616E637947756172643A207265656E7472616E742063616C6C00 PUSH1 0x44 DUP3 ADD MSTORE REVERT JUMPDEST DUP4 DUP1 REVERT JUMPDEST POP CALLVALUE PUSH2 0x1D2 JUMPI PUSH1 0x20 CALLDATASIZE PUSH1 0x3 NOT ADD SLT PUSH2 0x1D2 JUMPI PUSH2 0x4B1 PUSH2 0x2341 JUMP JUMPDEST SWAP1 PUSH2 0x4BA PUSH2 0x25A4 JUMP JUMPDEST PUSH1 0x1 PUSH1 0x1 PUSH1 0xA0 SHL SUB SWAP2 DUP3 AND SWAP3 DUP4 ISZERO PUSH2 0x507 JUMPI POP POP DUP3 SLOAD PUSH1 0x1 PUSH1 0x1 PUSH1 0xA0 SHL SUB NOT DUP2 AND DUP4 OR DUP5 SSTORE AND PUSH32 0x8BE0079C531659141344CD1FD0A4F28419497F9722A3DAAFE3B4186F6B6457E0 DUP4 DUP1 LOG3 DUP1 RETURN JUMPDEST SWAP1 PUSH1 0x20 PUSH1 0x84 SWAP3 MLOAD SWAP2 PUSH3 0x461BCD PUSH1 0xE5 SHL DUP4 MSTORE DUP3 ADD MSTORE PUSH1 0x26 PUSH1 0x24 DUP3 ADD MSTORE PUSH32 0x4F776E61626C653A206E6577206F776E657220697320746865207A65726F2061 PUSH1 0x44 DUP3 ADD MSTORE PUSH6 0x646472657373 PUSH1 0xD0 SHL PUSH1 0x64 DUP3 ADD MSTORE REVERT JUMPDEST POP POP CALLVALUE PUSH2 0x59E JUMPI PUSH1 0x20 CALLDATASIZE PUSH1 0x3 NOT ADD SLT PUSH2 0x59E JUMPI PUSH1 0x2 SWAP1 PUSH2 0x577 PUSH2 0x2341 JUMP JUMPDEST PUSH2 0x57F PUSH2 0x25A4 JUMP JUMPDEST PUSH1 0x1 PUSH1 0x1 PUSH1 0xA0 SHL SUB AND DUP4 MSTORE PUSH1 0x20 DUP3 SWAP1 MSTORE DUP3 KECCAK256 ADD DUP1 SLOAD PUSH2 0xFF00 NOT AND SWAP1 SSTORE DUP1 RETURN JUMPDEST POP DUP1 REVERT JUMPDEST POP POP CALLVALUE PUSH2 0x59E JUMPI DUP2 PUSH1 0x3 NOT CALLDATASIZE ADD SLT PUSH2 0x59E JUMPI PUSH1 0x20 SWAP1 PUSH1 0xA SLOAD SWAP1 MLOAD SWAP1 DUP2 MSTORE RETURN JUMPDEST POP SWAP2 SWAP1 CALLVALUE PUSH2 0x59E JUMPI PUSH1 0x60 CALLDATASIZE PUSH1 0x3 NOT ADD SLT PUSH2 0x59E JUMPI DUP3 CALLDATALOAD PUSH1 0x1 PUSH1 0x1 PUSH1 0x40 SHL SUB PUSH1 0x24 CALLDATALOAD DUP2 DUP2 GT PUSH2 0x846 JUMPI PUSH2 0x5F6 SWAP1 CALLDATASIZE SWAP1 DUP8 ADD PUSH2 0x22C3 JUMP JUMPDEST SWAP1 PUSH1 0x44 CALLDATALOAD SWAP1 DUP2 GT PUSH2 0x846 JUMPI PUSH2 0x60E SWAP1 CALLDATASIZE SWAP1 DUP8 ADD PUSH2 0x22C3 JUMP JUMPDEST SWAP4 CALLER DUP2 MSTORE PUSH1 0x20 SWAP6 PUSH1 0x2 DUP8 MSTORE PUSH2 0x62E PUSH1 0xFF PUSH1 0x2 DUP8 DUP6 KECCAK256 ADD SLOAD PUSH1 0x8 SHR AND PUSH2 0x276B JUMP JUMPDEST CALLER DUP3 MSTORE PUSH1 0x2 DUP8 MSTORE PUSH2 0x651 PUSH1 0xFF PUSH1 0x2 DUP8 DUP6 KECCAK256 ADD SLOAD AND PUSH2 0x64B DUP2 PUSH2 0x2472 JUMP JUMPDEST ISZERO PUSH2 0x27B7 JUMP JUMPDEST DUP4 DUP3 MSTORE PUSH1 0x3 DUP8 MSTORE DUP5 DUP3 KECCAK256 PUSH1 0x5 ADD SLOAD CALLER PUSH1 0x1 PUSH1 0x1 PUSH1 0xA0 SHL SUB SWAP1 SWAP2 AND SUB PUSH2 0x80B JUMPI DUP5 MLOAD SWAP1 DUP4 MLOAD SWAP2 DUP9 DUP2 DUP2 DUP8 ADD SWAP5 PUSH2 0x687 DUP2 DUP4 DUP9 PUSH2 0x231E JUMP JUMPDEST DUP2 ADD PUSH1 0x6 DUP2 MSTORE SUB ADD SWAP1 KECCAK256 SLOAD PUSH2 0x7CF JUMPI DUP4 MLOAD ISZERO PUSH2 0x78C JUMPI SWAP1 DUP6 SWAP4 SWAP3 SWAP2 DUP8 MLOAD ISZERO ISZERO PUSH2 0x6AF SWAP1 PUSH2 0x25FC JUMP JUMPDEST DUP8 PUSH1 0x9 SLOAD SWAP9 DUP10 SWAP7 DUP8 SWAP6 PUSH2 0x6C1 DUP8 PUSH2 0x27F7 JUMP JUMPDEST PUSH1 0x9 SSTORE DUP7 DUP2 MSTORE DUP5 DUP14 MSTORE KECCAK256 DUP6 DUP2 SSTORE PUSH1 0x1 DUP2 ADD DUP10 SWAP1 SSTORE PUSH1 0x2 DUP2 ADD DUP1 SLOAD PUSH1 0x1 PUSH1 0x1 PUSH1 0xA8 SHL SUB NOT AND CALLER PUSH1 0x8 SHL PUSH2 0x100 PUSH1 0x1 PUSH1 0xA8 SHL SUB AND OR SWAP1 SSTORE SWAP3 TIMESTAMP PUSH1 0x3 DUP6 ADD SSTORE DUP4 ADD SWAP1 PUSH2 0x709 SWAP2 PUSH2 0x26A4 JUMP JUMPDEST PUSH2 0x716 CALLER PUSH1 0x5 DUP5 ADD PUSH2 0x2834 JUMP JUMPDEST PUSH2 0x723 SWAP1 PUSH1 0x6 DUP4 ADD PUSH2 0x286F JUMP JUMPDEST PUSH2 0x731 SWAP1 TIMESTAMP SWAP1 PUSH1 0x7 ADD PUSH2 0x28B2 JUMP JUMPDEST DUP8 DUP7 MLOAD DUP1 DUP1 SWAP4 DUP7 MLOAD DUP1 SWAP3 PUSH2 0x744 SWAP3 PUSH2 0x231E JUMP JUMPDEST DUP2 ADD PUSH1 0x6 DUP2 MSTORE SUB ADD SWAP1 KECCAK256 SSTORE DUP4 MLOAD DUP1 SWAP2 DUP8 DUP3 MSTORE DUP8 DUP3 ADD PUSH2 0x762 SWAP2 PUSH2 0x244D JUMP JUMPDEST SUB PUSH32 0xFE35D0D7FF92482C19A430D1864F6DD16DB337A4BBB5887794576D11EF3B1E20 SWAP2 LOG3 MLOAD SWAP1 DUP2 MSTORE RETURN JUMPDEST DUP6 MLOAD PUSH3 0x461BCD PUSH1 0xE5 SHL DUP2 MSTORE SWAP1 DUP2 ADD DUP9 SWAP1 MSTORE PUSH1 0x17 PUSH1 0x24 DUP3 ADD MSTORE PUSH32 0x515220636F64652063616E6E6F7420626520656D707479000000000000000000 PUSH1 0x44 DUP3 ADD MSTORE PUSH1 0x64 SWAP1 REVERT JUMPDEST DUP6 MLOAD PUSH3 0x461BCD PUSH1 0xE5 SHL DUP2 MSTORE SWAP1 DUP2 ADD DUP9 SWAP1 MSTORE PUSH1 0x16 PUSH1 0x24 DUP3 ADD MSTORE PUSH22 0x515220636F646520616C726561647920657869737473 PUSH1 0x50 SHL PUSH1 0x44 DUP3 ADD MSTORE PUSH1 0x64 SWAP1 REVERT JUMPDEST DUP5 MLOAD PUSH3 0x461BCD PUSH1 0xE5 SHL DUP2 MSTORE SWAP1 DUP2 ADD DUP8 SWAP1 MSTORE PUSH1 0x15 PUSH1 0x24 DUP3 ADD MSTORE PUSH21 0x2737BA103A343290383937B23AB1BA1037BBB732B9 PUSH1 0x59 SHL PUSH1 0x44 DUP3 ADD MSTORE PUSH1 0x64 SWAP1 REVERT JUMPDEST DUP5 DUP1 REVERT JUMPDEST POP SWAP2 SWAP1 CALLVALUE PUSH2 0x59E JUMPI PUSH1 0x20 SWAP3 DUP4 PUSH1 0x3 NOT CALLDATASIZE ADD SLT PUSH2 0x1D2 JUMPI DUP1 CALLDATALOAD DUP1 ISZERO ISZERO DUP1 PUSH2 0x937 JUMPI JUMPDEST PUSH2 0x877 SWAP1 SWAP6 SWAP4 SWAP6 PUSH2 0x28E7 JUMP JUMPDEST DUP4 MSTORE DUP2 MSTORE DUP3 DUP3 KECCAK256 SWAP2 PUSH2 0x88B PUSH1 0x5 DUP5 ADD PUSH2 0x2AC9 JUMP JUMPDEST SWAP4 PUSH2 0x8A4 PUSH1 0x7 PUSH2 0x89D PUSH1 0x6 DUP8 ADD PUSH2 0x2B21 JUMP JUMPDEST SWAP6 ADD PUSH2 0x2B76 JUMP JUMPDEST SWAP3 DUP2 MLOAD SWAP6 DUP7 SWAP6 PUSH1 0x60 DUP8 ADD PUSH1 0x60 DUP9 MSTORE DUP3 MLOAD DUP1 SWAP2 MSTORE DUP4 PUSH1 0x80 DUP10 ADD SWAP4 ADD SWAP1 DUP7 JUMPDEST DUP2 DUP2 LT PUSH2 0x917 JUMPI POP POP POP SWAP1 PUSH2 0x8DC SWAP2 DUP8 DUP3 SUB DUP5 DUP10 ADD MSTORE PUSH2 0x2509 JUMP JUMPDEST SWAP2 DUP6 DUP4 SUB SWAP1 DUP7 ADD MSTORE DUP1 DUP1 DUP6 MLOAD SWAP4 DUP5 DUP2 MSTORE ADD SWAP5 ADD SWAP3 JUMPDEST DUP3 DUP2 LT PUSH2 0x900 JUMPI POP POP POP POP SUB SWAP1 RETURN JUMPDEST DUP4 MLOAD DUP6 MSTORE DUP7 SWAP6 POP SWAP4 DUP2 ADD SWAP4 SWAP3 DUP2 ADD SWAP3 PUSH1 0x1 ADD PUSH2 0x8F1 JUMP JUMPDEST DUP3 MLOAD PUSH1 0x1 PUSH1 0x1 PUSH1 0xA0 SHL SUB AND DUP6 MSTORE DUP11 SWAP10 POP SWAP4 DUP6 ADD SWAP4 SWAP2 DUP6 ADD SWAP2 PUSH1 0x1 ADD PUSH2 0x8C1 JUMP JUMPDEST POP PUSH1 0x9 SLOAD DUP2 LT PUSH2 0x86B JUMP JUMPDEST POP SWAP2 SWAP1 CALLVALUE PUSH2 0x59E JUMPI PUSH1 0x60 CALLDATASIZE PUSH1 0x3 NOT ADD SLT PUSH2 0x59E JUMPI PUSH1 0x1 PUSH1 0x1 PUSH1 0x40 SHL SUB DUP4 CALLDATALOAD DUP2 DUP2 GT PUSH2 0x493 JUMPI PUSH2 0x974 SWAP1 CALLDATASIZE SWAP1 DUP7 ADD PUSH2 0x22C3 JUMP JUMPDEST SWAP1 PUSH1 0x24 CALLDATALOAD DUP2 DUP2 GT PUSH2 0x846 JUMPI PUSH2 0x98C SWAP1 CALLDATASIZE SWAP1 DUP8 ADD PUSH2 0x22C3 JUMP JUMPDEST SWAP2 PUSH1 0x44 CALLDATALOAD SWAP2 DUP7 DUP4 LT ISZERO PUSH2 0xB35 JUMPI CALLER DUP7 MSTORE PUSH1 0x20 SWAP4 PUSH1 0x2 DUP6 MSTORE PUSH1 0xFF PUSH1 0x2 DUP8 DUP10 KECCAK256 ADD SLOAD PUSH1 0x8 SHR AND PUSH2 0xAFD JUMPI DUP3 MLOAD ISZERO PUSH2 0xAC3 JUMPI PUSH2 0x9C7 DUP2 MLOAD ISZERO ISZERO PUSH2 0x25FC JUMP JUMPDEST DUP6 MLOAD SWAP2 PUSH1 0xA0 DUP4 ADD SWAP1 DUP2 GT DUP4 DUP3 LT OR PUSH2 0xAB0 JUMPI SWAP2 PUSH1 0x3 DUP7 PUSH32 0xE3564C470DC79D88D220DE1A64BC335EC0A928450CE631293691BBA84DD9A611 SWAP8 SWAP7 SWAP6 SWAP4 PUSH2 0xAAA SWAP6 DUP11 MSTORE DUP5 DUP5 MSTORE DUP2 DUP5 ADD SWAP1 DUP2 MSTORE DUP11 PUSH2 0xA54 DUP12 DUP7 ADD SWAP3 PUSH2 0xA22 DUP11 PUSH2 0x2472 JUMP JUMPDEST DUP10 DUP5 MSTORE PUSH2 0xA4A DUP14 PUSH1 0x60 DUP10 ADD SWAP5 PUSH1 0x1 DUP7 MSTORE PUSH1 0x2 PUSH1 0x80 DUP12 ADD SWAP9 PUSH1 0x64 DUP11 MSTORE CALLER DUP4 MSTORE MSTORE KECCAK256 SWAP8 MLOAD DUP9 PUSH2 0x26A4 JUMP JUMPDEST MLOAD PUSH1 0x1 DUP8 ADD PUSH2 0x26A4 JUMP JUMPDEST PUSH1 0x2 DUP6 ADD SWAP2 MLOAD SWAP1 PUSH2 0xA64 DUP3 PUSH2 0x2472 JUMP JUMPDEST PUSH2 0xA6D DUP3 PUSH2 0x2472 JUMP JUMPDEST PUSH1 0xFF PUSH2 0xFF00 DUP5 SLOAD SWAP3 MLOAD ISZERO ISZERO PUSH1 0x8 SHL AND SWAP3 AND SWAP1 PUSH2 0xFFFF NOT AND OR OR SWAP1 SSTORE MLOAD SWAP2 ADD SSTORE DUP6 DUP1 MLOAD SWAP5 DUP5 PUSH2 0xA9B DUP8 SWAP7 PUSH2 0x2472 JUMP JUMPDEST DUP6 MSTORE DUP5 ADD MSTORE CALLER SWAP6 DUP4 ADD SWAP1 PUSH2 0x244D JUMP JUMPDEST SUB SWAP1 LOG2 DUP1 RETURN JUMPDEST PUSH4 0x4E487B71 PUSH1 0xE0 SHL DUP9 MSTORE PUSH1 0x41 DUP10 MSTORE PUSH1 0x24 DUP9 REVERT JUMPDEST DUP6 MLOAD PUSH3 0x461BCD PUSH1 0xE5 SHL DUP2 MSTORE DUP1 DUP10 ADD DUP7 SWAP1 MSTORE PUSH1 0x14 PUSH1 0x24 DUP3 ADD MSTORE PUSH20 0x4E616D652063616E6E6F7420626520656D707479 PUSH1 0x60 SHL PUSH1 0x44 DUP3 ADD MSTORE PUSH1 0x64 SWAP1 REVERT JUMPDEST DUP6 MLOAD PUSH3 0x461BCD PUSH1 0xE5 SHL DUP2 MSTORE DUP1 DUP10 ADD DUP7 SWAP1 MSTORE PUSH1 0x12 PUSH1 0x24 DUP3 ADD MSTORE PUSH18 0x105B1C9958591E481C9959DA5CDD195C9959 PUSH1 0x72 SHL PUSH1 0x44 DUP3 ADD MSTORE PUSH1 0x64 SWAP1 REVERT JUMPDEST DUP6 DUP1 REVERT JUMPDEST SWAP1 POP DUP3 DUP5 CALLVALUE PUSH2 0x1CF JUMPI PUSH1 0x20 CALLDATASIZE PUSH1 0x3 NOT ADD SLT PUSH2 0x1CF JUMPI SWAP1 PUSH2 0xBCA DUP2 PUSH2 0x1CB SWAP4 DUP7 CALLDATALOAD DUP2 MSTORE DUP7 PUSH1 0x20 MSTORE KECCAK256 DUP1 SLOAD SWAP5 PUSH1 0x1 DUP3 ADD SLOAD SWAP7 PUSH1 0x2 DUP4 ADD SLOAD PUSH2 0xBA5 PUSH2 0xB8D PUSH1 0x8 PUSH2 0xB86 PUSH1 0x3 DUP9 ADD SLOAD SWAP6 DUP9 ADD PUSH2 0x23A7 JUMP JUMPDEST SWAP7 ADD PUSH2 0x23A7 JUMP JUMPDEST SWAP7 DUP1 MLOAD SWAP11 DUP12 SWAP11 DUP12 MSTORE PUSH1 0x20 DUP12 ADD MSTORE DUP10 ADD PUSH1 0xFF DUP4 AND PUSH2 0x2565 JUMP JUMPDEST PUSH1 0x8 SHR PUSH1 0x1 PUSH1 0x1 PUSH1 0xA0 SHL SUB AND PUSH1 0x60 DUP9 ADD MSTORE PUSH1 0x80 DUP8 ADD MSTORE PUSH1 0xA0 DUP7 ADD DUP2 SWAP1 MSTORE DUP6 ADD SWAP1 PUSH2 0x244D JUMP JUMPDEST SWAP1 DUP4 DUP3 SUB PUSH1 0xC0 DUP6 ADD MSTORE PUSH2 0x244D JUMP JUMPDEST POP POP CALLVALUE PUSH2 0x1D2 JUMPI DUP2 PUSH1 0x3 NOT CALLDATASIZE ADD SLT PUSH2 0x1D2 JUMPI PUSH2 0xBF2 PUSH2 0x2341 JUMP JUMPDEST PUSH2 0xBFA PUSH2 0x25A4 JUMP JUMPDEST PUSH1 0x1 PUSH1 0x1 PUSH1 0xA0 SHL SUB AND DUP1 DUP5 MSTORE PUSH1 0x2 PUSH1 0x20 DUP2 SWAP1 MSTORE DUP4 DUP6 KECCAK256 ADD SLOAD SWAP1 SWAP2 SWAP1 PUSH1 0x8 SHR PUSH1 0xFF AND ISZERO PUSH2 0xC35 JUMPI POP DUP3 MSTORE PUSH1 0x2 PUSH1 0x20 MSTORE PUSH1 0x3 PUSH1 0x24 CALLDATALOAD SWAP2 DUP4 KECCAK256 ADD SSTORE DUP1 RETURN JUMPDEST PUSH1 0x64 SWAP1 PUSH1 0x20 DUP5 MLOAD SWAP2 PUSH3 0x461BCD PUSH1 0xE5 SHL DUP4 MSTORE DUP3 ADD MSTORE PUSH1 0x16 PUSH1 0x24 DUP3 ADD MSTORE PUSH22 0x5061727469636970616E74206E6F7420616374697665 PUSH1 0x50 SHL PUSH1 0x44 DUP3 ADD MSTORE REVERT JUMPDEST POP POP SWAP2 CALLVALUE PUSH2 0x1CF JUMPI PUSH2 0xC82 CALLDATASIZE PUSH2 0x24A9 JUMP JUMPDEST SWAP2 SWAP1 DUP2 MSTORE PUSH1 0x7 PUSH1 0x20 MSTORE DUP3 DUP2 KECCAK256 SWAP1 DUP2 SLOAD DUP4 LT ISZERO PUSH2 0x1CF JUMPI POP PUSH2 0x1CB SWAP2 PUSH2 0xCA6 SWAP2 PUSH2 0x2572 JUMP JUMPDEST POP SWAP2 DUP3 SLOAD SWAP3 PUSH1 0x1 DUP2 ADD SLOAD SWAP5 PUSH1 0x2 DUP3 ADD SLOAD PUSH2 0xCDB PUSH1 0x5 PUSH2 0xCC7 PUSH1 0x3 DUP7 ADD PUSH2 0x23A7 JUMP JUMPDEST SWAP4 DUP6 ADD SLOAD PUSH1 0x1 PUSH1 0x1 PUSH1 0xA0 SHL SUB AND SWAP5 ADD PUSH2 0x23A7 JUMP JUMPDEST SWAP4 MLOAD SWAP7 DUP8 SWAP7 DUP8 PUSH2 0x24BF JUMP JUMPDEST DUP5 SWAP4 SWAP2 POP CALLVALUE PUSH2 0x493 JUMPI PUSH1 0x20 CALLDATASIZE PUSH1 0x3 NOT ADD SLT PUSH2 0x493 JUMPI DUP3 CALLDATALOAD SWAP1 DUP2 ISZERO ISZERO DUP1 PUSH2 0xE84 JUMPI JUMPDEST PUSH2 0xD10 SWAP1 PUSH2 0x28E7 JUMP JUMPDEST DUP2 DUP6 MSTORE DUP4 PUSH1 0x20 MSTORE DUP3 DUP6 KECCAK256 SWAP1 DUP4 MLOAD SWAP2 PUSH2 0x140 DUP4 ADD DUP4 DUP2 LT PUSH1 0x1 PUSH1 0x1 PUSH1 0x40 SHL SUB DUP3 GT OR PUSH2 0xE71 JUMPI DUP6 MSTORE DUP1 SLOAD DUP4 MSTORE PUSH1 0x1 DUP2 ADD SLOAD SWAP6 PUSH1 0x20 DUP5 ADD SWAP7 DUP8 MSTORE PUSH1 0x2 DUP3 ADD SLOAD SWAP8 PUSH1 0xFF DUP10 AND SWAP9 DUP8 DUP7 ADD SWAP10 PUSH1 0x5 DUP2 LT ISZERO PUSH2 0xE5E JUMPI DUP11 MSTORE PUSH1 0x60 DUP7 ADD PUSH1 0x1 DUP1 PUSH1 0xA0 SHL SUB DUP1 SWAP3 PUSH1 0x8 SHR AND DUP2 MSTORE PUSH1 0x3 DUP6 ADD SLOAD PUSH1 0x80 DUP9 ADD MSTORE PUSH2 0xDD0 PUSH1 0x8 PUSH2 0xD8F DUP7 DUP9 ADD PUSH2 0x23A7 JUMP JUMPDEST SWAP7 PUSH1 0xA0 DUP11 ADD SWAP8 DUP9 MSTORE PUSH2 0xDA3 PUSH1 0x5 DUP3 ADD PUSH2 0x2AC9 JUMP JUMPDEST PUSH1 0xC0 DUP12 ADD MSTORE PUSH2 0xDB4 PUSH1 0x6 DUP3 ADD PUSH2 0x2B21 JUMP JUMPDEST DUP10 DUP12 ADD MSTORE PUSH2 0xDC4 PUSH1 0x7 DUP3 ADD PUSH2 0x2B76 JUMP JUMPDEST PUSH2 0x100 DUP12 ADD MSTORE ADD PUSH2 0x23A7 JUMP JUMPDEST SWAP7 PUSH2 0x120 DUP2 ADD SWAP8 DUP9 MSTORE MLOAD SWAP10 MLOAD SWAP11 MLOAD SWAP4 PUSH1 0x5 DUP6 LT ISZERO PUSH2 0xE4B JUMPI POP SWAP3 DUP9 PUSH2 0xE41 SWAP9 SWAP8 SWAP6 SWAP4 PUSH2 0xE20 SWAP4 PUSH2 0xE33 SWAP9 SWAP7 MLOAD AND SWAP5 MLOAD SWAP7 MLOAD SWAP9 DUP2 MSTORE PUSH1 0x7 PUSH1 0x20 MSTORE KECCAK256 SLOAD SWAP9 DUP1 MLOAD SWAP12 DUP13 SWAP12 DUP13 MSTORE PUSH1 0x20 DUP13 ADD MSTORE DUP11 ADD SWAP1 PUSH2 0x2565 JUMP JUMPDEST PUSH1 0x60 DUP9 ADD MSTORE DUP1 PUSH1 0x80 DUP9 ADD MSTORE DUP7 ADD SWAP1 PUSH2 0x244D JUMP JUMPDEST SWAP1 DUP5 DUP3 SUB PUSH1 0xA0 DUP7 ADD MSTORE PUSH2 0x244D JUMP JUMPDEST SWAP1 PUSH1 0xC0 DUP4 ADD MSTORE SUB SWAP1 RETURN JUMPDEST PUSH4 0x4E487B71 PUSH1 0xE0 SHL DUP5 MSTORE PUSH1 0x21 SWAP1 MSTORE PUSH1 0x24 DUP4 REVERT JUMPDEST PUSH4 0x4E487B71 PUSH1 0xE0 SHL DUP4 MSTORE PUSH1 0x21 DUP5 MSTORE PUSH1 0x24 DUP4 REVERT JUMPDEST PUSH4 0x4E487B71 PUSH1 0xE0 SHL DUP9 MSTORE PUSH1 0x41 DUP8 MSTORE PUSH1 0x24 DUP9 REVERT JUMPDEST POP PUSH1 0x9 SLOAD DUP3 LT PUSH2 0xD07 JUMP JUMPDEST SWAP1 POP DUP3 DUP5 CALLVALUE PUSH2 0x1CF JUMPI PUSH1 0x20 CALLDATASIZE PUSH1 0x3 NOT ADD SLT PUSH2 0x1CF JUMPI DUP2 SWAP1 DUP5 CALLDATALOAD DUP2 MSTORE PUSH1 0x5 PUSH1 0x20 MSTORE KECCAK256 SWAP2 PUSH2 0xF22 DUP4 SLOAD SWAP4 PUSH1 0x1 DUP2 ADD SLOAD SWAP6 PUSH1 0x1 DUP1 PUSH1 0xA0 SHL SUB SWAP1 DUP2 PUSH1 0x2 DUP5 ADD SLOAD AND SWAP2 PUSH1 0x3 DUP5 ADD SLOAD AND SWAP1 DUP4 ADD SLOAD SWAP1 PUSH1 0x5 DUP5 ADD SLOAD SWAP3 PUSH1 0xFF PUSH1 0x7 PUSH2 0xEEE PUSH1 0x6 DUP9 ADD PUSH2 0x23A7 JUMP JUMPDEST SWAP7 ADD SLOAD AND SWAP8 DUP1 MLOAD SWAP11 DUP12 SWAP11 DUP12 MSTORE PUSH1 0x20 DUP12 ADD MSTORE DUP10 ADD MSTORE PUSH1 0x60 DUP9 ADD MSTORE PUSH1 0x80 DUP8 ADD MSTORE PUSH1 0xA0 DUP7 ADD MSTORE PUSH2 0x100 DUP1 PUSH1 0xC0 DUP8 ADD MSTORE DUP6 ADD SWAP1 PUSH2 0x244D JUMP JUMPDEST SWAP2 ISZERO ISZERO SWAP1 DUP4 ADD MSTORE SUB SWAP1 RETURN JUMPDEST POP POP CALLVALUE PUSH2 0x1D2 JUMPI PUSH1 0xA0 CALLDATASIZE PUSH1 0x3 NOT ADD SLT PUSH2 0x1D2 JUMPI DUP1 CALLDATALOAD SWAP2 PUSH1 0x24 CALLDATALOAD SWAP2 PUSH1 0x44 CALLDATALOAD SWAP1 PUSH1 0x1 PUSH1 0x1 PUSH1 0x40 SHL SUB PUSH1 0x64 CALLDATALOAD DUP2 DUP2 GT PUSH2 0x10DF JUMPI PUSH2 0xF6A SWAP1 CALLDATASIZE SWAP1 DUP5 ADD PUSH2 0x22C3 JUMP JUMPDEST SWAP1 PUSH1 0x84 CALLDATALOAD SWAP1 DUP2 GT PUSH2 0x10DF JUMPI PUSH2 0xF82 SWAP1 CALLDATASIZE SWAP1 DUP5 ADD PUSH2 0x22C3 JUMP JUMPDEST SWAP1 CALLER DUP9 MSTORE PUSH1 0x2 PUSH1 0x20 MSTORE PUSH2 0xFA0 PUSH1 0xFF PUSH1 0x2 DUP8 DUP12 KECCAK256 ADD SLOAD PUSH1 0x8 SHR AND PUSH2 0x276B JUMP JUMPDEST DUP7 ISZERO ISZERO DUP1 PUSH2 0x10D4 JUMPI JUMPDEST PUSH2 0xFB2 SWAP1 PUSH2 0x28E7 JUMP JUMPDEST PUSH2 0xFBE DUP2 MLOAD ISZERO ISZERO PUSH2 0x25FC JUMP JUMPDEST DUP5 MLOAD SWAP3 PUSH2 0xFCA DUP5 PUSH2 0x2256 JUMP JUMPDEST TIMESTAMP DUP5 MSTORE PUSH1 0x20 DUP5 ADD SWAP2 DUP8 DUP4 MSTORE DUP7 DUP6 ADD DUP7 DUP2 MSTORE PUSH1 0x60 DUP7 ADD SWAP2 DUP3 MSTORE PUSH1 0x80 DUP7 ADD SWAP4 CALLER DUP6 MSTORE PUSH1 0xA0 DUP8 ADD SWAP6 DUP7 MSTORE DUP11 DUP13 MSTORE PUSH1 0x7 PUSH1 0x20 MSTORE DUP9 DUP13 KECCAK256 DUP1 SLOAD SWAP1 PUSH1 0x1 PUSH1 0x40 SHL DUP3 LT ISZERO PUSH2 0x10C1 JUMPI SWAP1 PUSH2 0x101B SWAP2 PUSH1 0x1 DUP3 ADD DUP2 SSTORE PUSH2 0x2572 JUMP JUMPDEST SWAP8 SWAP1 SWAP8 PUSH2 0x10AF JUMPI SWAP4 PUSH2 0x1071 PUSH1 0x5 SWAP5 PUSH32 0x8E6C88BF7B7F998FB55CE029E1C5639E9D4FD1C8AAD83EA1A90CD20F148ADD2D SWAP13 SWAP11 SWAP9 SWAP5 PUSH2 0x109C SWAP9 SWAP5 PUSH1 0x60 SWAP14 SWAP12 SWAP9 MLOAD DUP10 SSTORE MLOAD PUSH1 0x1 DUP10 ADD SSTORE MLOAD PUSH1 0x2 DUP9 ADD SSTORE MLOAD PUSH1 0x3 DUP8 ADD PUSH2 0x26A4 JUMP JUMPDEST DUP5 ADD SWAP1 PUSH1 0x1 DUP1 PUSH1 0xA0 SHL SUB SWAP1 MLOAD AND PUSH12 0xFFFFFFFFFFFFFFFFFFFFFFFF PUSH1 0xA0 SHL DUP3 SLOAD AND OR SWAP1 SSTORE MLOAD SWAP2 ADD PUSH2 0x26A4 JUMP JUMPDEST DUP2 MLOAD SWAP3 DUP4 MSTORE PUSH1 0x20 DUP4 ADD MSTORE CALLER SWAP1 DUP3 ADD MSTORE LOG2 DUP1 RETURN JUMPDEST PUSH4 0x4E487B71 PUSH1 0xE0 SHL DUP14 MSTORE DUP13 DUP6 MSTORE PUSH1 0x24 DUP14 REVERT JUMPDEST PUSH4 0x4E487B71 PUSH1 0xE0 SHL DUP15 MSTORE PUSH1 0x41 DUP7 MSTORE PUSH1 0x24 DUP15 REVERT JUMPDEST POP PUSH1 0x9 SLOAD DUP8 LT PUSH2 0xFA9 JUMP JUMPDEST DUP8 DUP1 REVERT JUMPDEST POP POP POP CALLVALUE PUSH2 0x59E JUMPI DUP2 PUSH1 0x3 NOT CALLDATASIZE ADD SLT PUSH2 0x59E JUMPI SWAP1 SLOAD SWAP1 MLOAD PUSH1 0x1 PUSH1 0x1 PUSH1 0xA0 SHL SUB SWAP1 SWAP2 AND DUP2 MSTORE PUSH1 0x20 SWAP1 RETURN JUMPDEST POP POP POP CALLVALUE PUSH2 0x59E JUMPI DUP2 PUSH1 0x3 NOT CALLDATASIZE ADD SLT PUSH2 0x59E JUMPI PUSH1 0x20 SWAP1 PUSH1 0x9 SLOAD SWAP1 MLOAD SWAP1 DUP2 MSTORE RETURN JUMPDEST DUP5 CALLVALUE PUSH2 0x1CF JUMPI DUP1 PUSH1 0x3 NOT CALLDATASIZE ADD SLT PUSH2 0x1CF JUMPI PUSH2 0x1145 PUSH2 0x25A4 JUMP JUMPDEST DUP1 RETURN JUMPDEST POP POP CALLVALUE PUSH2 0x1D2 JUMPI PUSH1 0x20 CALLDATASIZE PUSH1 0x3 NOT ADD SLT PUSH2 0x1D2 JUMPI PUSH1 0x20 SWAP3 DUP3 SWAP2 CALLDATALOAD DUP1 ISZERO ISZERO DUP1 PUSH2 0x1182 JUMPI JUMPDEST PUSH2 0x1173 SWAP1 PUSH2 0x28E7 JUMP JUMPDEST DUP2 MSTORE PUSH1 0x7 DUP5 MSTORE KECCAK256 SLOAD SWAP1 MLOAD SWAP1 DUP2 MSTORE RETURN JUMPDEST POP PUSH1 0x9 SLOAD DUP2 LT PUSH2 0x116A JUMP JUMPDEST SWAP2 SWAP4 SWAP1 POP CALLVALUE PUSH2 0x1CF JUMPI PUSH1 0x20 CALLDATASIZE PUSH1 0x3 NOT ADD SLT PUSH2 0x1CF JUMPI DUP3 SWAP1 DUP5 CALLDATALOAD DUP2 MSTORE PUSH1 0x3 PUSH1 0x20 MSTORE KECCAK256 SWAP1 PUSH1 0xFF DUP3 SLOAD SWAP4 PUSH2 0x122E PUSH2 0x11C3 PUSH1 0x1 DUP7 ADD PUSH2 0x23A7 JUMP JUMPDEST SWAP7 PUSH2 0x11D0 PUSH1 0x2 DUP8 ADD PUSH2 0x23A7 JUMP JUMPDEST SWAP6 PUSH2 0x121B PUSH1 0x5 PUSH2 0x11E6 PUSH1 0x3 DUP5 ADD SLOAD SWAP5 DUP5 ADD PUSH2 0x23A7 JUMP JUMPDEST SWAP3 ADD SLOAD SWAP5 DUP7 DUP7 PUSH1 0xA0 SHR AND SWAP9 PUSH2 0x120E DUP3 MLOAD SWAP13 DUP14 SWAP13 DUP14 MSTORE PUSH1 0x20 DUP14 PUSH2 0x100 SWAP2 DUP3 SWAP2 ADD MSTORE DUP14 ADD SWAP1 PUSH2 0x244D JUMP JUMPDEST SWAP2 DUP12 DUP4 SUB SWAP1 DUP13 ADD MSTORE PUSH2 0x244D JUMP JUMPDEST SWAP2 PUSH1 0x60 DUP10 ADD MSTORE DUP8 DUP3 SUB PUSH1 0x80 DUP10 ADD MSTORE PUSH2 0x244D JUMP JUMPDEST PUSH1 0x1 PUSH1 0x1 PUSH1 0xA0 SHL SUB DUP3 AND PUSH1 0xA0 DUP8 ADD MSTORE SWAP4 PUSH2 0x1247 DUP2 PUSH2 0x2472 JUMP JUMPDEST PUSH1 0xC0 DUP7 ADD MSTORE PUSH1 0xA8 SHR AND ISZERO ISZERO SWAP1 DUP4 ADD MSTORE SUB SWAP1 RETURN JUMPDEST SWAP3 SWAP2 SWAP1 POP CALLVALUE PUSH2 0x493 JUMPI PUSH1 0x20 CALLDATASIZE PUSH1 0x3 NOT ADD SLT PUSH2 0x493 JUMPI DUP1 CALLDATALOAD DUP5 MSTORE PUSH1 0x3 PUSH1 0x20 MSTORE DUP2 DUP5 KECCAK256 SWAP4 DUP3 MLOAD SWAP1 PUSH2 0x120 DUP3 ADD SWAP1 DUP3 DUP3 LT PUSH1 0x1 PUSH1 0x1 PUSH1 0x40 SHL SUB DUP4 GT OR PUSH2 0x139E JUMPI POP DUP4 MSTORE DUP5 SLOAD DUP2 MSTORE PUSH2 0x1CB SWAP3 SWAP2 SWAP1 PUSH2 0x12B0 PUSH1 0x1 DUP8 ADD PUSH2 0x23A7 JUMP JUMPDEST SWAP6 PUSH1 0x20 DUP3 ADD SWAP7 DUP8 MSTORE DUP6 PUSH2 0x12C5 PUSH1 0x2 DUP4 ADD PUSH2 0x23A7 JUMP JUMPDEST SWAP8 DUP6 DUP5 ADD SWAP9 DUP10 MSTORE PUSH2 0x12E3 PUSH1 0x3 DUP5 ADD SLOAD SWAP6 PUSH1 0x60 DUP7 ADD SWAP7 DUP8 MSTORE DUP5 ADD PUSH2 0x23A7 JUMP JUMPDEST PUSH1 0x80 DUP6 ADD MSTORE PUSH2 0x1375 PUSH1 0x5 DUP5 ADD SLOAD SWAP4 PUSH1 0xA0 DUP7 ADD SWAP3 PUSH2 0x100 PUSH2 0x1335 PUSH1 0x6 PUSH1 0x1 DUP1 PUSH1 0xA0 SHL SUB SWAP5 DUP6 DUP11 AND DUP9 MSTORE PUSH1 0xFF DUP1 DUP12 PUSH1 0xA0 SHR AND SWAP10 PUSH1 0xC0 DUP14 ADD SWAP11 PUSH2 0x1322 DUP2 PUSH2 0x2472 JUMP JUMPDEST DUP12 MSTORE DUP13 ADD SWAP11 PUSH1 0xA8 SHR AND ISZERO ISZERO DUP11 MSTORE ADD PUSH2 0x2B21 JUMP JUMPDEST SWAP8 ADD SWAP7 DUP8 MSTORE MLOAD SWAP11 MLOAD SWAP7 MLOAD SWAP3 MLOAD AND SWAP3 MLOAD SWAP4 PUSH2 0x134E DUP6 PUSH2 0x2472 JUMP JUMPDEST MLOAD ISZERO ISZERO SWAP5 MLOAD SWAP6 PUSH2 0x1367 DUP9 MLOAD SWAP12 DUP12 DUP14 SWAP13 DUP14 MSTORE DUP13 ADD SWAP1 PUSH2 0x244D JUMP JUMPDEST SWAP1 DUP11 DUP3 SUB PUSH1 0x20 DUP13 ADD MSTORE PUSH2 0x244D JUMP JUMPDEST SWAP6 DUP9 ADD MSTORE PUSH1 0x60 DUP8 ADD MSTORE PUSH2 0x1387 DUP2 PUSH2 0x2472 JUMP JUMPDEST PUSH1 0x80 DUP7 ADD MSTORE PUSH1 0xA0 DUP6 ADD MSTORE DUP4 DUP3 SUB PUSH1 0xC0 DUP6 ADD MSTORE PUSH2 0x2509 JUMP JUMPDEST PUSH4 0x4E487B71 PUSH1 0xE0 SHL DUP2 MSTORE PUSH1 0x41 DUP5 MSTORE PUSH1 0x24 SWAP1 REVERT JUMPDEST DUP3 DUP6 DUP6 CALLVALUE PUSH2 0x59E JUMPI PUSH1 0x60 CALLDATASIZE PUSH1 0x3 NOT ADD SLT PUSH2 0x59E JUMPI DUP3 CALLDATALOAD SWAP1 PUSH1 0x24 CALLDATALOAD DUP5 DUP2 LT ISZERO PUSH2 0x493 JUMPI PUSH1 0x44 CALLDATALOAD PUSH1 0x1 PUSH1 0x1 PUSH1 0x40 SHL SUB DUP2 GT PUSH2 0x846 JUMPI PUSH2 0x13F1 SWAP1 CALLDATASIZE SWAP1 DUP8 ADD PUSH2 0x22C3 JUMP JUMPDEST SWAP5 CALLER DUP6 MSTORE PUSH1 0x2 SWAP1 PUSH1 0x20 SWAP2 DUP1 DUP4 MSTORE PUSH2 0x1412 PUSH1 0xFF DUP3 DUP8 DUP11 KECCAK256 ADD SLOAD PUSH1 0x8 SHR AND PUSH2 0x276B JUMP JUMPDEST DUP6 ISZERO ISZERO DUP1 PUSH2 0x15F9 JUMPI JUMPDEST PUSH2 0x1424 SWAP1 PUSH2 0x28E7 JUMP JUMPDEST DUP6 DUP8 MSTORE DUP2 DUP4 MSTORE DUP5 DUP8 KECCAK256 DUP2 ADD SLOAD PUSH1 0x8 SHR PUSH1 0x1 PUSH1 0x1 PUSH1 0xA0 SHL SUB AND CALLER EQ SWAP1 DUP2 ISZERO PUSH2 0x15D6 JUMPI JUMPDEST DUP2 ISZERO PUSH2 0x15B5 JUMPI JUMPDEST POP ISZERO PUSH2 0x1575 JUMPI DUP6 SWAP7 DUP6 PUSH32 0x149D92E4BF796C3E2A82AC345FFEC37F4A260D4BC732AB4E6792F5BC971A538D SWAP7 SWAP8 MSTORE DUP2 DUP4 MSTORE PUSH1 0x1 DUP6 DUP10 KECCAK256 ADD SLOAD DUP9 MSTORE PUSH1 0x3 DUP4 MSTORE PUSH1 0x5 DUP6 DUP10 KECCAK256 ADD PUSH2 0x1499 DUP6 PUSH2 0x2472 JUMP JUMPDEST DUP1 SLOAD PUSH1 0xFF PUSH1 0xA0 SHL NOT AND PUSH1 0xA0 DUP7 SWAP1 SHL PUSH1 0xFF PUSH1 0xA0 SHL AND OR SWAP1 SSTORE DUP1 MLOAD PUSH2 0x14D0 JUMPI JUMPDEST POP POP DUP3 MLOAD SWAP2 PUSH2 0x14C5 DUP2 PUSH2 0x2472 JUMP JUMPDEST DUP3 MSTORE CALLER SWAP1 DUP3 ADD MSTORE LOG2 DUP1 RETURN JUMPDEST PUSH2 0x156E SWAP2 PUSH2 0x155E PUSH1 0x18 PUSH2 0x1501 SWAP4 DUP11 DUP13 MSTORE DUP4 DUP8 MSTORE PUSH1 0x8 DUP10 DUP14 KECCAK256 ADD SWAP1 PUSH2 0x14F3 DUP10 PUSH2 0x2BE8 JUMP JUMPDEST DUP11 MLOAD SWAP7 DUP8 SWAP4 DUP11 DUP6 ADD SWAP1 PUSH2 0x296A JUMP JUMPDEST PUSH22 0x103E1028BAB0B634BA3C903AB83230BA32B2103A379 PUSH1 0x55 SHL DUP2 MSTORE PUSH2 0x1530 DUP3 MLOAD DUP1 SWAP4 DUP13 PUSH1 0x16 DUP6 ADD SWAP2 ADD PUSH2 0x231E JUMP JUMPDEST ADD PUSH2 0x1D1 PUSH1 0xF5 SHL PUSH1 0x16 DUP3 ADD MSTORE PUSH2 0x154E DUP3 MLOAD DUP1 SWAP4 DUP12 DUP8 DUP6 ADD SWAP2 ADD PUSH2 0x231E JUMP JUMPDEST ADD SUB PUSH1 0x7 NOT DUP2 ADD DUP6 MSTORE ADD DUP4 PUSH2 0x22A2 JUMP JUMPDEST DUP8 DUP10 MSTORE DUP4 MSTORE PUSH1 0x8 DUP6 DUP10 KECCAK256 ADD PUSH2 0x26A4 JUMP JUMPDEST DUP7 DUP1 PUSH2 0x14B7 JUMP JUMPDEST DUP2 PUSH1 0x64 SWAP3 DUP6 MLOAD SWAP3 PUSH3 0x461BCD PUSH1 0xE5 SHL DUP5 MSTORE DUP4 ADD MSTORE PUSH1 0x24 DUP3 ADD MSTORE PUSH32 0x4E6F7420617574686F72697A656420746F20757064617465207175616C697479 PUSH1 0x44 DUP3 ADD MSTORE REVERT JUMPDEST SWAP1 POP CALLER DUP8 MSTORE DUP1 DUP4 MSTORE PUSH1 0xFF DUP2 DUP7 DUP10 KECCAK256 ADD SLOAD AND PUSH2 0x15CF DUP2 PUSH2 0x2472 JUMP JUMPDEST EQ DUP9 PUSH2 0x144D JUMP JUMPDEST SWAP1 POP CALLER DUP8 MSTORE DUP1 DUP4 MSTORE PUSH1 0x1 PUSH1 0xFF DUP3 DUP8 DUP11 KECCAK256 ADD SLOAD AND PUSH2 0x15F2 DUP2 PUSH2 0x2472 JUMP JUMPDEST EQ SWAP1 PUSH2 0x1446 JUMP JUMPDEST POP PUSH1 0x9 SLOAD DUP7 LT PUSH2 0x141B JUMP JUMPDEST DUP5 CALLVALUE PUSH2 0x1CF JUMPI DUP1 PUSH1 0x3 NOT CALLDATASIZE ADD SLT PUSH2 0x1CF JUMPI PUSH2 0x161D PUSH2 0x25A4 JUMP JUMPDEST DUP1 SLOAD PUSH1 0x1 PUSH1 0x1 PUSH1 0xA0 SHL SUB NOT DUP2 AND DUP3 SSTORE DUP2 SWAP1 PUSH1 0x1 PUSH1 0x1 PUSH1 0xA0 SHL SUB AND PUSH32 0x8BE0079C531659141344CD1FD0A4F28419497F9722A3DAAFE3B4186F6B6457E0 DUP3 DUP1 LOG3 DUP1 RETURN JUMPDEST POP POP CALLVALUE PUSH2 0x1D2 JUMPI DUP2 PUSH1 0x3 NOT CALLDATASIZE ADD SLT PUSH2 0x1D2 JUMPI DUP1 CALLDATALOAD SWAP2 PUSH1 0x24 CALLDATALOAD PUSH1 0x1 PUSH1 0x1 PUSH1 0x40 SHL SUB DUP2 GT PUSH2 0x846 JUMPI PUSH2 0x1691 SWAP1 CALLDATASIZE SWAP1 DUP5 ADD PUSH2 0x22C3 JUMP JUMPDEST SWAP2 CALLER DUP6 MSTORE PUSH1 0x20 SWAP1 PUSH1 0x2 DUP3 MSTORE PUSH2 0x16B1 PUSH1 0xFF PUSH1 0x2 DUP6 DUP10 KECCAK256 ADD SLOAD PUSH1 0x8 SHR AND PUSH2 0x276B JUMP JUMPDEST DUP5 ISZERO ISZERO DUP1 PUSH2 0x17A6 JUMPI JUMPDEST PUSH2 0x16C3 SWAP1 PUSH2 0x28E7 JUMP JUMPDEST DUP4 MLOAD ISZERO PUSH2 0x176E JUMPI SWAP1 PUSH2 0x174F PUSH2 0x1714 PUSH32 0x60D2710F994A966E6A74A13B688BD849C20BB765EBAD645FD9F58DE9E454D995 SWAP6 SWAP5 SWAP4 DUP8 DUP10 MSTORE DUP1 DUP5 MSTORE PUSH2 0x173F PUSH1 0x3 PUSH1 0x8 DUP8 DUP13 KECCAK256 ADD DUP8 MLOAD SWAP5 DUP6 SWAP2 DUP9 DUP4 ADD SWAP1 PUSH2 0x296A JUMP JUMPDEST PUSH3 0x103E1 PUSH1 0xED SHL DUP2 MSTORE DUP10 MLOAD SWAP1 PUSH2 0x172F DUP3 DUP6 DUP4 ADD DUP12 DUP15 ADD PUSH2 0x231E JUMP JUMPDEST ADD SUB PUSH1 0x1C NOT DUP2 ADD DUP6 MSTORE ADD DUP4 PUSH2 0x22A2 JUMP JUMPDEST DUP8 DUP10 MSTORE DUP4 MSTORE PUSH1 0x8 DUP5 DUP10 KECCAK256 ADD PUSH2 0x26A4 JUMP JUMPDEST PUSH2 0x1762 DUP3 MLOAD SWAP4 DUP4 DUP6 SWAP5 DUP6 MSTORE DUP5 ADD SWAP1 PUSH2 0x244D JUMP JUMPDEST SWAP1 CALLER SWAP1 DUP4 ADD MSTORE SUB SWAP1 LOG2 DUP1 RETURN JUMPDEST SWAP2 MLOAD PUSH3 0x461BCD PUSH1 0xE5 SHL DUP2 MSTORE SWAP2 DUP3 ADD MSTORE PUSH1 0x14 PUSH1 0x24 DUP3 ADD MSTORE PUSH20 0x4E6F74652063616E6E6F7420626520656D707479 PUSH1 0x60 SHL PUSH1 0x44 DUP3 ADD MSTORE PUSH1 0x64 SWAP1 REVERT JUMPDEST POP PUSH1 0x9 SLOAD DUP6 LT PUSH2 0x16BA JUMP JUMPDEST POP POP POP CALLVALUE PUSH2 0x59E JUMPI DUP2 PUSH1 0x3 NOT CALLDATASIZE ADD SLT PUSH2 0x59E JUMPI PUSH1 0x20 SWAP1 PUSH1 0x8 SLOAD SWAP1 MLOAD SWAP1 DUP2 MSTORE RETURN JUMPDEST POP POP SWAP2 CALLVALUE PUSH2 0x1CF JUMPI PUSH1 0x20 CALLDATASIZE PUSH1 0x3 NOT ADD SLT PUSH2 0x1CF JUMPI DUP3 CALLDATALOAD SWAP3 DUP4 LT ISZERO PUSH2 0x1CF JUMPI POP PUSH2 0x1B8 PUSH2 0x1CB SWAP3 PUSH2 0x2DA9 JUMP JUMPDEST POP POP SWAP2 CALLVALUE PUSH2 0x1CF JUMPI PUSH1 0x20 CALLDATASIZE PUSH1 0x3 NOT ADD SLT PUSH2 0x1CF JUMPI DUP3 CALLDATALOAD SWAP1 PUSH1 0x1 PUSH1 0x1 PUSH1 0x40 SHL SUB DUP3 GT PUSH2 0x1CF JUMPI POP PUSH1 0x20 PUSH2 0x1835 DUP2 SWAP5 PUSH2 0x1847 SWAP4 CALLDATASIZE SWAP2 ADD PUSH2 0x22C3 JUMP JUMPDEST DUP2 DUP5 MLOAD SWAP4 DUP3 DUP6 DUP1 SWAP5 MLOAD SWAP4 DUP5 SWAP3 ADD PUSH2 0x231E JUMP JUMPDEST DUP2 ADD PUSH1 0x6 DUP2 MSTORE SUB ADD SWAP1 KECCAK256 SLOAD SWAP1 MLOAD SWAP1 DUP2 MSTORE RETURN JUMPDEST POP POP SWAP2 CALLVALUE PUSH2 0x1CF JUMPI PUSH2 0x186A CALLDATASIZE PUSH2 0x24A9 JUMP JUMPDEST SWAP2 SWAP1 DUP1 ISZERO ISZERO DUP1 PUSH2 0x1958 JUMPI JUMPDEST PUSH2 0x187E SWAP1 PUSH2 0x28E7 JUMP JUMPDEST DUP1 DUP3 MSTORE PUSH1 0x7 PUSH1 0x20 MSTORE DUP4 DUP3 KECCAK256 SLOAD DUP4 LT ISZERO PUSH2 0x1925 JUMPI SWAP2 DUP4 DUP3 PUSH2 0x1CB SWAP5 PUSH2 0x18A8 SWAP5 MSTORE PUSH1 0x7 PUSH1 0x20 MSTORE KECCAK256 PUSH2 0x2572 JUMP JUMPDEST POP SWAP2 DUP1 MLOAD SWAP1 PUSH2 0x18B6 DUP3 PUSH2 0x2256 JUMP JUMPDEST DUP4 SLOAD DUP3 MSTORE PUSH1 0x1 DUP5 ADD SLOAD SWAP4 PUSH1 0x20 DUP4 ADD SWAP5 DUP6 MSTORE PUSH1 0x2 DUP2 ADD SLOAD SWAP6 DUP3 DUP5 ADD SWAP7 DUP8 MSTORE PUSH2 0x18DF PUSH1 0x3 DUP4 ADD PUSH2 0x23A7 JUMP JUMPDEST PUSH1 0x60 DUP6 ADD SWAP1 DUP2 MSTORE SWAP1 DUP3 ADD SLOAD PUSH1 0x1 PUSH1 0x1 PUSH1 0xA0 SHL SUB SWAP1 DUP2 AND PUSH1 0x80 DUP7 ADD SWAP1 DUP2 MSTORE SWAP3 PUSH2 0x1909 SWAP1 PUSH1 0x5 ADD PUSH2 0x23A7 JUMP JUMPDEST SWAP5 DUP6 PUSH1 0xA0 DUP3 ADD MSTORE MLOAD SWAP7 MLOAD SWAP8 MLOAD SWAP2 MLOAD SWAP3 MLOAD AND SWAP3 MLOAD SWAP7 DUP8 SWAP7 DUP8 PUSH2 0x24BF JUMP JUMPDEST DUP4 MLOAD PUSH3 0x461BCD PUSH1 0xE5 SHL DUP2 MSTORE PUSH1 0x20 DUP2 DUP8 ADD MSTORE PUSH1 0xD PUSH1 0x24 DUP3 ADD MSTORE PUSH13 0x92DCECC2D8D2C840D2DCC8CAF PUSH1 0x9B SHL PUSH1 0x44 DUP3 ADD MSTORE PUSH1 0x64 SWAP1 REVERT JUMPDEST POP PUSH1 0x9 SLOAD DUP2 LT PUSH2 0x1875 JUMP JUMPDEST DUP3 DUP6 DUP6 CALLVALUE PUSH2 0x59E JUMPI PUSH1 0xC0 CALLDATASIZE PUSH1 0x3 NOT ADD SLT PUSH2 0x59E JUMPI PUSH1 0x1 PUSH1 0x1 PUSH1 0x40 SHL SUB SWAP2 DUP4 CALLDATALOAD DUP4 DUP2 GT PUSH2 0x59E JUMPI PUSH2 0x1996 SWAP1 CALLDATASIZE SWAP1 DUP7 ADD PUSH2 0x22C3 JUMP JUMPDEST SWAP1 PUSH1 0x24 SWAP5 DUP6 CALLDATALOAD DUP6 DUP2 GT PUSH2 0x1D2 JUMPI PUSH2 0x19B0 SWAP1 CALLDATASIZE SWAP1 DUP4 ADD PUSH2 0x22C3 JUMP JUMPDEST SWAP2 PUSH1 0x64 CALLDATALOAD DUP7 DUP2 GT PUSH2 0x59E JUMPI PUSH2 0x19C8 SWAP1 CALLDATASIZE SWAP1 DUP5 ADD PUSH2 0x22C3 JUMP JUMPDEST SWAP6 PUSH1 0x84 CALLDATALOAD DUP1 ISZERO ISZERO DUP1 SWAP2 SUB PUSH2 0x1D2 JUMPI PUSH1 0xA4 CALLDATALOAD SWAP9 DUP3 DUP11 GT PUSH2 0x493 JUMPI CALLDATASIZE PUSH1 0x23 DUP12 ADD SLT ISZERO PUSH2 0x493 JUMPI DUP10 DUP6 ADD CALLDATALOAD SWAP2 PUSH2 0x19FA DUP4 PUSH2 0x2492 JUMP JUMPDEST SWAP4 PUSH2 0x1A07 DUP11 MLOAD SWAP6 DUP7 PUSH2 0x22A2 JUMP JUMPDEST DUP4 DUP6 MSTORE PUSH1 0x20 SWAP12 DUP13 DUP7 ADD SWAP1 DUP5 DUP3 SWAP7 PUSH1 0x5 SHL DUP3 ADD ADD SWAP3 CALLDATASIZE DUP5 GT PUSH2 0x1CBB JUMPI DUP6 DUP3 ADD SWAP3 JUMPDEST DUP5 DUP5 LT PUSH2 0x1C92 JUMPI POP POP POP POP POP CALLER DUP6 MSTORE PUSH1 0x2 DUP12 MSTORE PUSH2 0x1A4F PUSH1 0xFF PUSH1 0x2 DUP12 DUP9 KECCAK256 ADD SLOAD PUSH1 0x8 SHR AND PUSH2 0x276B JUMP JUMPDEST CALLER DUP6 MSTORE PUSH1 0x2 DUP12 MSTORE PUSH2 0x1A6C PUSH1 0xFF PUSH1 0x2 DUP12 DUP9 KECCAK256 ADD SLOAD AND PUSH2 0x64B DUP2 PUSH2 0x2472 JUMP JUMPDEST DUP8 MLOAD ISZERO PUSH2 0x1C50 JUMPI PUSH1 0x44 CALLDATALOAD SWAP1 DUP2 ISZERO PUSH2 0x1C0E JUMPI PUSH1 0x8 SLOAD SWAP11 PUSH2 0x1A8A DUP13 PUSH2 0x27F7 JUMP JUMPDEST PUSH1 0x8 SSTORE DUP12 DUP8 MSTORE PUSH1 0x3 DUP14 MSTORE DUP11 DUP8 KECCAK256 SWAP3 DUP13 DUP5 SSTORE PUSH1 0x1 SWAP10 DUP12 DUP12 DUP7 ADD SWAP1 PUSH2 0x1AAC SWAP2 PUSH2 0x26A4 JUMP JUMPDEST PUSH2 0x1AB9 SWAP1 PUSH1 0x2 DUP7 ADD PUSH2 0x26A4 JUMP JUMPDEST PUSH1 0x3 DUP5 ADD SSTORE PUSH2 0x1ACA SWAP1 DUP9 DUP5 ADD PUSH2 0x26A4 JUMP JUMPDEST PUSH1 0x5 DUP3 ADD DUP1 SLOAD PUSH1 0x1 PUSH1 0x1 PUSH1 0xB0 SHL SUB NOT AND CALLER PUSH2 0xFFFF PUSH1 0xA0 SHL NOT AND OR PUSH1 0xA8 SWAP3 SWAP1 SWAP3 SHL PUSH1 0xFF PUSH1 0xA8 SHL AND SWAP2 SWAP1 SWAP2 OR SWAP1 SSTORE SWAP3 MLOAD SWAP5 PUSH1 0x6 SWAP1 SWAP4 ADD SWAP3 PUSH1 0x1 PUSH1 0x40 SHL DUP7 GT PUSH2 0x1BFD JUMPI POP POP DUP2 SLOAD DUP5 DUP4 SSTORE DUP1 DUP6 LT PUSH2 0x1B8B JUMPI JUMPDEST POP SWAP1 DUP3 MSTORE DUP8 DUP3 KECCAK256 SWAP1 DUP9 SWAP1 JUMPDEST DUP5 DUP5 LT PUSH2 0x1B6E JUMPI POP DUP8 DUP8 DUP8 DUP3 PUSH32 0xAF6FFB6277511513E7D579327CC1FC57F0266DF2FB11A60B13487B8C9CD2C388 DUP4 MLOAD DUP7 DUP2 MSTORE DUP1 PUSH2 0x1B65 CALLER SWAP6 DUP10 DUP4 ADD SWAP1 PUSH2 0x244D JUMP JUMPDEST SUB SWAP1 LOG3 MLOAD SWAP1 DUP2 MSTORE RETURN JUMPDEST DUP6 SWAP2 DUP2 PUSH2 0x1B7D DUP5 SWAP4 MLOAD DUP7 PUSH2 0x26A4 JUMP JUMPDEST ADD SWAP3 ADD SWAP3 ADD SWAP2 SWAP1 DUP9 SWAP1 PUSH2 0x1B24 JUMP JUMPDEST DUP3 DUP5 MSTORE DUP6 DUP6 DUP12 DUP7 KECCAK256 SWAP3 DUP4 ADD SWAP3 ADD JUMPDEST DUP3 DUP2 LT PUSH2 0x1BA7 JUMPI POP POP PUSH2 0x1B19 JUMP JUMPDEST DUP6 PUSH2 0x1BB2 DUP3 SLOAD PUSH2 0x236D JUMP JUMPDEST DUP1 PUSH2 0x1BC2 JUMPI JUMPDEST POP POP ADD DUP7 SWAP1 PUSH2 0x1B99 JUMP JUMPDEST DUP14 PUSH1 0x1F DUP1 DUP4 GT PUSH1 0x1 EQ PUSH2 0x1BDC JUMPI POP POP POP DUP2 SSTORE JUMPDEST DUP6 DUP14 PUSH2 0x1BB8 JUMP JUMPDEST PUSH2 0x1BF4 SWAP2 DUP6 DUP6 MSTORE DUP5 KECCAK256 SWAP3 ADD PUSH1 0x5 SHR DUP3 ADD DUP6 DUP4 ADD PUSH2 0x2648 JUMP JUMPDEST DUP2 DUP4 SSTORE SSTORE PUSH2 0x1BD5 JUMP JUMPDEST PUSH4 0x4E487B71 PUSH1 0xE0 SHL DUP6 MSTORE PUSH1 0x41 SWAP1 MSTORE DUP4 REVERT JUMPDEST DUP10 MLOAD PUSH3 0x461BCD PUSH1 0xE5 SHL DUP2 MSTORE DUP1 DUP9 ADD DUP14 SWAP1 MSTORE PUSH1 0x1F DUP2 DUP6 ADD MSTORE PUSH32 0x5175616E74697479206D7573742062652067726561746572207468616E203000 PUSH1 0x44 DUP3 ADD MSTORE PUSH1 0x64 SWAP1 REVERT JUMPDEST DUP9 MLOAD PUSH3 0x461BCD PUSH1 0xE5 SHL DUP2 MSTORE DUP1 DUP8 ADD DUP13 SWAP1 MSTORE PUSH1 0x1C DUP2 DUP5 ADD MSTORE PUSH32 0x50726F64756374206E616D652063616E6E6F7420626520656D70747900000000 PUSH1 0x44 DUP3 ADD MSTORE PUSH1 0x64 SWAP1 REVERT JUMPDEST DUP2 DUP5 CALLDATALOAD GT PUSH2 0x1CB7 JUMPI DUP16 DUP1 SWAP2 PUSH2 0x1CAC CALLDATASIZE DUP11 DUP9 CALLDATALOAD DUP9 ADD ADD PUSH2 0x22C3 JUMP JUMPDEST DUP2 MSTORE ADD SWAP4 ADD SWAP3 PUSH2 0x1A27 JUMP JUMPDEST DUP10 DUP1 REVERT JUMPDEST DUP9 DUP1 REVERT JUMPDEST POP POP SWAP1 CALLVALUE PUSH2 0x1D2 JUMPI PUSH1 0x80 CALLDATASIZE PUSH1 0x3 NOT ADD SLT PUSH2 0x1D2 JUMPI DUP2 CALLDATALOAD PUSH2 0x1CDD PUSH2 0x2357 JUMP JUMPDEST SWAP2 PUSH1 0x44 CALLDATALOAD SWAP1 PUSH1 0x5 DUP3 LT ISZERO PUSH2 0xB35 JUMPI PUSH1 0x64 CALLDATALOAD PUSH1 0x1 PUSH1 0x1 PUSH1 0x40 SHL SUB DUP2 GT PUSH2 0x1F57 JUMPI PUSH2 0x1D09 SWAP1 CALLDATASIZE SWAP1 DUP8 ADD PUSH2 0x22C3 JUMP JUMPDEST SWAP1 DUP4 ISZERO ISZERO DUP1 PUSH2 0x1F4C JUMPI JUMPDEST PUSH2 0x1D1C SWAP1 PUSH2 0x28E7 JUMP JUMPDEST DUP4 DUP8 MSTORE PUSH1 0x20 DUP7 DUP2 MSTORE DUP2 DUP9 KECCAK256 PUSH1 0x2 SWAP1 DUP2 ADD SLOAD PUSH1 0x1 PUSH1 0x1 PUSH1 0xA0 SHL SUB SWAP8 SWAP3 SWAP5 SWAP2 SWAP3 SWAP1 PUSH2 0x1D4B SWAP1 PUSH1 0x8 SHR DUP10 AND CALLER EQ PUSH2 0x2926 JUMP JUMPDEST CALLER DUP11 MSTORE DUP3 DUP6 MSTORE PUSH2 0x1D65 PUSH1 0xFF DUP5 DUP7 DUP14 KECCAK256 ADD SLOAD PUSH1 0x8 SHR AND PUSH2 0x276B JUMP JUMPDEST DUP8 DUP2 AND SWAP9 DUP10 DUP12 MSTORE DUP4 DUP7 MSTORE PUSH1 0xFF DUP5 DUP7 DUP14 KECCAK256 ADD SLOAD PUSH1 0x8 SHR AND ISZERO PUSH2 0x1F09 JUMPI DUP8 DUP12 MSTORE DUP1 DUP7 MSTORE PUSH1 0xFF DUP5 DUP7 DUP14 KECCAK256 ADD SLOAD AND PUSH1 0x5 DUP2 LT ISZERO PUSH2 0x1EBF JUMPI DUP8 EQ PUSH2 0x1ED2 JUMPI DUP8 DUP12 MSTORE DUP1 DUP7 MSTORE PUSH1 0xFF DUP5 DUP7 DUP14 KECCAK256 ADD SLOAD AND SWAP9 PUSH1 0x5 DUP11 LT ISZERO PUSH2 0x1EBF JUMPI PUSH1 0xFF DUP9 AND SWAP10 DUP11 GT ISZERO PUSH2 0x1E7C JUMPI SWAP1 DUP4 SWAP2 DUP3 MLOAD ISZERO ISZERO PUSH2 0x1DD3 SWAP1 PUSH2 0x25FC JUMP JUMPDEST DUP10 DUP14 MSTORE DUP2 DUP9 MSTORE DUP7 DUP14 KECCAK256 SWAP6 DUP7 ADD DUP1 SLOAD PUSH2 0x100 PUSH1 0x1 PUSH1 0xA8 SHL SUB NOT DUP2 AND PUSH1 0x8 DUP8 DUP2 SHL PUSH2 0x100 PUSH1 0x1 PUSH1 0xA8 SHL SUB AND SWAP2 SWAP1 SWAP2 OR DUP4 SSTORE SHR SWAP1 SWAP2 AND SWAP11 DUP2 SLOAD PUSH1 0xFF NOT AND OR SWAP1 SSTORE PUSH2 0x1E1C SWAP2 SWAP1 DUP6 ADD PUSH2 0x26A4 JUMP JUMPDEST TIMESTAMP PUSH1 0x3 DUP5 ADD SSTORE PUSH2 0x1E2F SWAP1 PUSH1 0x5 DUP5 ADD PUSH2 0x2834 JUMP JUMPDEST PUSH2 0x1E3C SWAP1 PUSH1 0x6 DUP4 ADD PUSH2 0x286F JUMP JUMPDEST PUSH2 0x1E4A SWAP1 TIMESTAMP SWAP1 PUSH1 0x7 ADD PUSH2 0x28B2 JUMP JUMPDEST MLOAD SWAP2 DUP3 PUSH2 0x1E56 SWAP2 PUSH2 0x2565 JUMP JUMPDEST PUSH32 0xD9D3AD1299833596BEC6138AAE47314CBB71FB92C7582ABED06E22840593AD4 SWAP2 LOG4 DUP1 RETURN JUMPDEST DUP6 MLOAD PUSH3 0x461BCD PUSH1 0xE5 SHL DUP2 MSTORE DUP1 DUP4 ADD DUP9 SWAP1 MSTORE PUSH1 0x1B PUSH1 0x24 DUP3 ADD MSTORE PUSH32 0x5374616765206D7573742070726F677265737320666F72776172640000000000 PUSH1 0x44 DUP3 ADD MSTORE PUSH1 0x64 SWAP1 REVERT JUMPDEST PUSH4 0x4E487B71 PUSH1 0xE0 SHL DUP13 MSTORE PUSH1 0x21 DUP3 MSTORE PUSH1 0x24 DUP13 REVERT JUMPDEST DUP5 MLOAD PUSH3 0x461BCD PUSH1 0xE5 SHL DUP2 MSTORE SWAP1 DUP2 ADD DUP7 SWAP1 MSTORE PUSH1 0x11 PUSH1 0x24 DUP3 ADD MSTORE PUSH17 0x5374616765206D757374206368616E6765 PUSH1 0x78 SHL PUSH1 0x44 DUP3 ADD MSTORE PUSH1 0x64 SWAP1 REVERT JUMPDEST DUP5 MLOAD PUSH3 0x461BCD PUSH1 0xE5 SHL DUP2 MSTORE SWAP1 DUP2 ADD DUP7 SWAP1 MSTORE PUSH1 0x18 PUSH1 0x24 DUP3 ADD MSTORE PUSH32 0x4E6577206F776E6572206E6F7420726567697374657265640000000000000000 PUSH1 0x44 DUP3 ADD MSTORE PUSH1 0x64 SWAP1 REVERT JUMPDEST POP PUSH1 0x9 SLOAD DUP5 LT PUSH2 0x1D13 JUMP JUMPDEST DUP7 DUP1 REVERT JUMPDEST DUP3 DUP5 DUP7 CALLVALUE PUSH2 0x1CF JUMPI PUSH1 0x80 CALLDATASIZE PUSH1 0x3 NOT ADD SLT PUSH2 0x1CF JUMPI DUP3 CALLDATALOAD SWAP3 PUSH2 0x1F7A PUSH2 0x2357 JUMP JUMPDEST SWAP5 PUSH1 0x44 CALLDATALOAD PUSH1 0x64 CALLDATALOAD SWAP3 PUSH1 0x1 PUSH1 0x1 PUSH1 0x40 SHL SUB SWAP4 DUP5 DUP2 GT PUSH2 0xB35 JUMPI PUSH2 0x1F9F SWAP1 CALLDATASIZE SWAP1 DUP4 ADD PUSH2 0x22C3 JUMP JUMPDEST SWAP3 DUP8 ISZERO ISZERO DUP1 PUSH2 0x21AA JUMPI JUMPDEST PUSH2 0x1FB2 SWAP1 PUSH2 0x28E7 JUMP JUMPDEST DUP8 DUP7 MSTORE PUSH1 0x20 DUP3 DUP2 MSTORE DUP8 DUP8 KECCAK256 PUSH1 0x2 ADD SLOAD SWAP1 SWAP10 PUSH1 0x1 PUSH1 0x1 PUSH1 0xA0 SHL SUB SWAP2 DUP3 SWAP2 SWAP1 PUSH2 0x1FDF SWAP1 PUSH1 0x8 SHR DUP4 AND CALLER EQ PUSH2 0x2926 JUMP JUMPDEST AND SWAP1 DUP2 DUP9 MSTORE PUSH1 0x2 DUP12 MSTORE PUSH1 0xFF PUSH1 0x2 DUP11 DUP11 KECCAK256 ADD SLOAD PUSH1 0x8 SHR AND ISZERO PUSH2 0x2170 JUMPI DUP5 ISZERO PUSH2 0x212D JUMPI DUP6 MLOAD ISZERO PUSH2 0x20EC JUMPI PUSH1 0xA SLOAD SWAP10 PUSH2 0x2014 DUP12 PUSH2 0x27F7 JUMP JUMPDEST PUSH1 0xA SSTORE DUP10 MLOAD SWAP8 PUSH2 0x100 DUP10 ADD SWAP1 DUP2 GT DUP10 DUP3 LT OR PUSH2 0x20D9 JUMPI SWAP1 DUP11 DUP11 DUP15 DUP15 SWAP6 SWAP5 DUP4 MSTORE DUP6 DUP13 MSTORE DUP1 DUP13 ADD SWAP4 DUP5 MSTORE DUP3 DUP13 ADD SWAP6 CALLER DUP8 MSTORE PUSH1 0x60 DUP14 ADD SWAP8 DUP9 MSTORE PUSH1 0x80 DUP14 ADD SWAP9 TIMESTAMP DUP11 MSTORE DUP14 PUSH1 0xA0 DUP2 ADD SWAP13 DUP14 MSTORE PUSH1 0xC0 ADD SWAP13 DUP14 MSTORE DUP14 ADD SWAP14 DUP15 MSTORE DUP3 MSTORE PUSH1 0x5 SWAP1 MSTORE KECCAK256 SWAP9 MLOAD DUP10 SSTORE MLOAD PUSH1 0x1 DUP10 ADD SSTORE DUP1 PUSH1 0x2 DUP10 ADD SWAP3 MLOAD AND SWAP2 PUSH12 0xFFFFFFFFFFFFFFFFFFFFFFFF PUSH1 0xA0 SHL SWAP3 DUP4 DUP3 SLOAD AND OR SWAP1 SSTORE PUSH1 0x3 DUP9 ADD SWAP3 MLOAD AND SWAP1 DUP3 SLOAD AND OR SWAP1 SSTORE MLOAD SWAP1 DUP5 ADD SSTORE MLOAD PUSH1 0x5 DUP4 ADD SSTORE MLOAD PUSH1 0x6 DUP3 ADD SWAP1 PUSH2 0x20BF SWAP2 PUSH2 0x26A4 JUMP JUMPDEST PUSH1 0x7 ADD SWAP1 MLOAD ISZERO ISZERO PUSH1 0xFF NOT DUP3 SLOAD AND SWAP1 PUSH1 0xFF AND OR SWAP1 SSTORE MLOAD SWAP1 DUP2 MSTORE RETURN JUMPDEST PUSH4 0x4E487B71 PUSH1 0xE0 SHL DUP11 MSTORE PUSH1 0x41 DUP7 MSTORE PUSH1 0x24 DUP11 REVERT JUMPDEST PUSH1 0x64 DUP5 DUP13 DUP1 DUP13 MLOAD SWAP3 PUSH3 0x461BCD PUSH1 0xE5 SHL DUP5 MSTORE DUP4 ADD MSTORE PUSH1 0x24 DUP3 ADD MSTORE PUSH32 0x5472616E73616374696F6E20747970652063616E6E6F7420626520656D707479 PUSH1 0x44 DUP3 ADD MSTORE REVERT JUMPDEST DUP9 MLOAD PUSH3 0x461BCD PUSH1 0xE5 SHL DUP2 MSTORE DUP1 DUP6 ADD DUP13 SWAP1 MSTORE PUSH1 0x1C PUSH1 0x24 DUP3 ADD MSTORE PUSH32 0x5072696365206D7573742062652067726561746572207468616E203000000000 PUSH1 0x44 DUP3 ADD MSTORE PUSH1 0x64 SWAP1 REVERT JUMPDEST DUP9 MLOAD PUSH3 0x461BCD PUSH1 0xE5 SHL DUP2 MSTORE DUP1 DUP6 ADD DUP13 SWAP1 MSTORE PUSH1 0x14 PUSH1 0x24 DUP3 ADD MSTORE PUSH20 0x109D5E595C881B9BDD081C9959DA5CDD195C9959 PUSH1 0x62 SHL PUSH1 0x44 DUP3 ADD MSTORE PUSH1 0x64 SWAP1 REVERT JUMPDEST POP PUSH1 0x9 SLOAD DUP9 LT PUSH2 0x1FA9 JUMP JUMPDEST POP POP POP CALLVALUE PUSH2 0x59E JUMPI PUSH1 0x20 CALLDATASIZE PUSH1 0x3 NOT ADD SLT PUSH2 0x59E JUMPI PUSH2 0x2227 SWAP2 DUP2 SWAP1 PUSH1 0x1 PUSH1 0x1 PUSH1 0xA0 SHL SUB PUSH2 0x21DF PUSH2 0x2341 JUMP JUMPDEST AND DUP2 MSTORE PUSH1 0x2 PUSH1 0x20 MSTORE KECCAK256 SWAP1 PUSH2 0x21F2 DUP3 PUSH2 0x23A7 JUMP JUMPDEST SWAP2 PUSH1 0xFF PUSH2 0x2201 PUSH1 0x1 DUP4 ADD PUSH2 0x23A7 JUMP JUMPDEST SWAP2 PUSH1 0x2 DUP2 ADD SLOAD SWAP1 PUSH2 0x2235 PUSH1 0x3 DUP5 DUP5 AND SWAP3 ADD SLOAD SWAP5 DUP7 MLOAD SWAP9 DUP10 SWAP9 PUSH1 0xA0 DUP11 MSTORE PUSH1 0xA0 DUP11 ADD SWAP1 PUSH2 0x244D JUMP JUMPDEST SWAP1 DUP9 DUP3 SUB PUSH1 0x20 DUP11 ADD MSTORE PUSH2 0x244D JUMP JUMPDEST SWAP5 PUSH2 0x223F DUP3 PUSH2 0x2472 JUMP JUMPDEST DUP7 ADD MSTORE PUSH1 0x8 SHR AND ISZERO ISZERO PUSH1 0x60 DUP5 ADD MSTORE PUSH1 0x80 DUP4 ADD MSTORE SUB SWAP1 RETURN JUMPDEST PUSH1 0xC0 DUP2 ADD SWAP1 DUP2 LT PUSH1 0x1 PUSH1 0x1 PUSH1 0x40 SHL SUB DUP3 GT OR PUSH2 0x2271 JUMPI PUSH1 0x40 MSTORE JUMP JUMPDEST PUSH4 0x4E487B71 PUSH1 0xE0 SHL PUSH1 0x0 MSTORE PUSH1 0x41 PUSH1 0x4 MSTORE PUSH1 0x24 PUSH1 0x0 REVERT JUMPDEST PUSH1 0x40 DUP2 ADD SWAP1 DUP2 LT PUSH1 0x1 PUSH1 0x1 PUSH1 0x40 SHL SUB DUP3 GT OR PUSH2 0x2271 JUMPI PUSH1 0x40 MSTORE JUMP JUMPDEST SWAP1 PUSH1 0x1F DUP1 NOT SWAP2 ADD AND DUP2 ADD SWAP1 DUP2 LT PUSH1 0x1 PUSH1 0x1 PUSH1 0x40 SHL SUB DUP3 GT OR PUSH2 0x2271 JUMPI PUSH1 0x40 MSTORE JUMP JUMPDEST DUP2 PUSH1 0x1F DUP3 ADD SLT ISZERO PUSH2 0x2319 JUMPI DUP1 CALLDATALOAD SWAP1 PUSH1 0x1 PUSH1 0x1 PUSH1 0x40 SHL SUB DUP3 GT PUSH2 0x2271 JUMPI PUSH1 0x40 MLOAD SWAP3 PUSH2 0x22F7 PUSH1 0x1F DUP5 ADD PUSH1 0x1F NOT AND PUSH1 0x20 ADD DUP6 PUSH2 0x22A2 JUMP JUMPDEST DUP3 DUP5 MSTORE PUSH1 0x20 DUP4 DUP4 ADD ADD GT PUSH2 0x2319 JUMPI DUP2 PUSH1 0x0 SWAP3 PUSH1 0x20 DUP1 SWAP4 ADD DUP4 DUP7 ADD CALLDATACOPY DUP4 ADD ADD MSTORE SWAP1 JUMP JUMPDEST PUSH1 0x0 DUP1 REVERT JUMPDEST PUSH1 0x0 JUMPDEST DUP4 DUP2 LT PUSH2 0x2331 JUMPI POP POP PUSH1 0x0 SWAP2 ADD MSTORE JUMP JUMPDEST DUP2 DUP2 ADD MLOAD DUP4 DUP3 ADD MSTORE PUSH1 0x20 ADD PUSH2 0x2321 JUMP JUMPDEST PUSH1 0x4 CALLDATALOAD SWAP1 PUSH1 0x1 PUSH1 0x1 PUSH1 0xA0 SHL SUB DUP3 AND DUP3 SUB PUSH2 0x2319 JUMPI JUMP JUMPDEST PUSH1 0x24 CALLDATALOAD SWAP1 PUSH1 0x1 PUSH1 0x1 PUSH1 0xA0 SHL SUB DUP3 AND DUP3 SUB PUSH2 0x2319 JUMPI JUMP JUMPDEST SWAP1 PUSH1 0x1 DUP3 DUP2 SHR SWAP3 AND DUP1 ISZERO PUSH2 0x239D JUMPI JUMPDEST PUSH1 0x20 DUP4 LT EQ PUSH2 0x2387 JUMPI JUMP JUMPDEST PUSH4 0x4E487B71 PUSH1 0xE0 SHL PUSH1 0x0 MSTORE PUSH1 0x22 PUSH1 0x4 MSTORE PUSH1 0x24 PUSH1 0x0 REVERT JUMPDEST SWAP2 PUSH1 0x7F AND SWAP2 PUSH2 0x237C JUMP JUMPDEST SWAP1 PUSH1 0x40 MLOAD SWAP2 DUP3 PUSH1 0x0 DUP3 SLOAD SWAP3 PUSH2 0x23BB DUP5 PUSH2 0x236D JUMP JUMPDEST SWAP1 DUP2 DUP5 MSTORE PUSH1 0x1 SWAP5 DUP6 DUP2 AND SWAP1 DUP2 PUSH1 0x0 EQ PUSH2 0x242A JUMPI POP PUSH1 0x1 EQ PUSH2 0x23E7 JUMPI JUMPDEST POP POP PUSH2 0x23E5 SWAP3 POP SUB DUP4 PUSH2 0x22A2 JUMP JUMPDEST JUMP JUMPDEST SWAP1 SWAP4 SWAP2 POP PUSH1 0x0 MSTORE PUSH1 0x20 SWAP1 DUP2 PUSH1 0x0 KECCAK256 SWAP4 PUSH1 0x0 SWAP2 JUMPDEST DUP2 DUP4 LT PUSH2 0x2412 JUMPI POP POP PUSH2 0x23E5 SWAP4 POP DUP3 ADD ADD CODESIZE DUP1 PUSH2 0x23D7 JUMP JUMPDEST DUP6 SLOAD DUP9 DUP5 ADD DUP6 ADD MSTORE SWAP5 DUP6 ADD SWAP5 DUP8 SWAP5 POP SWAP2 DUP4 ADD SWAP2 PUSH2 0x23FA JUMP JUMPDEST SWAP2 POP POP PUSH2 0x23E5 SWAP5 POP PUSH1 0x20 SWAP3 POP PUSH1 0xFF NOT AND DUP3 DUP5 ADD MSTORE ISZERO ISZERO PUSH1 0x5 SHL DUP3 ADD ADD CODESIZE DUP1 PUSH2 0x23D7 JUMP JUMPDEST SWAP1 PUSH1 0x20 SWAP2 PUSH2 0x2466 DUP2 MLOAD DUP1 SWAP3 DUP2 DUP6 MSTORE DUP6 DUP1 DUP7 ADD SWAP2 ADD PUSH2 0x231E JUMP JUMPDEST PUSH1 0x1F ADD PUSH1 0x1F NOT AND ADD ADD SWAP1 JUMP JUMPDEST PUSH1 0x4 GT ISZERO PUSH2 0x247C JUMPI JUMP JUMPDEST PUSH4 0x4E487B71 PUSH1 0xE0 SHL PUSH1 0x0 MSTORE PUSH1 0x21 PUSH1 0x4 MSTORE PUSH1 0x24 PUSH1 0x0 REVERT JUMPDEST PUSH1 0x1 PUSH1 0x1 PUSH1 0x40 SHL SUB DUP2 GT PUSH2 0x2271 JUMPI PUSH1 0x5 SHL PUSH1 0x20 ADD SWAP1 JUMP JUMPDEST PUSH1 0x40 SWAP1 PUSH1 0x3 NOT ADD SLT PUSH2 0x2319 JUMPI PUSH1 0x4 CALLDATALOAD SWAP1 PUSH1 0x24 CALLDATALOAD SWAP1 JUMP JUMPDEST SWAP3 PUSH2 0x24E7 SWAP3 PUSH2 0x2506 SWAP8 SWAP6 SWAP3 DUP6 MSTORE PUSH1 0x20 DUP6 ADD MSTORE PUSH1 0x40 DUP5 ADD MSTORE PUSH1 0xC0 PUSH1 0x60 DUP5 ADD MSTORE PUSH1 0xC0 DUP4 ADD SWAP1 PUSH2 0x244D JUMP JUMPDEST PUSH1 0x1 PUSH1 0x1 PUSH1 0xA0 SHL SUB SWAP1 SWAP4 AND PUSH1 0x80 DUP3 ADD MSTORE DUP1 DUP4 SUB PUSH1 0xA0 SWAP2 SWAP1 SWAP2 ADD MSTORE PUSH2 0x244D JUMP JUMPDEST SWAP1 JUMP JUMPDEST SWAP1 DUP1 DUP3 MLOAD SWAP1 DUP2 DUP2 MSTORE PUSH1 0x20 DUP1 SWAP2 ADD SWAP3 DUP2 DUP1 DUP5 PUSH1 0x5 SHL DUP4 ADD ADD SWAP6 ADD SWAP4 PUSH1 0x0 SWAP2 JUMPDEST DUP5 DUP4 LT PUSH2 0x2537 JUMPI POP POP POP POP POP POP SWAP1 JUMP JUMPDEST SWAP1 SWAP2 SWAP3 SWAP4 SWAP5 SWAP6 DUP5 DUP1 PUSH2 0x2555 PUSH1 0x1 SWAP4 PUSH1 0x1F NOT DUP7 DUP3 SUB ADD DUP8 MSTORE DUP11 MLOAD PUSH2 0x244D JUMP JUMPDEST SWAP9 ADD SWAP4 ADD SWAP4 ADD SWAP2 SWAP5 SWAP4 SWAP3 SWAP1 PUSH2 0x2527 JUMP JUMPDEST SWAP1 PUSH1 0x5 DUP3 LT ISZERO PUSH2 0x247C JUMPI MSTORE JUMP JUMPDEST DUP1 SLOAD DUP3 LT ISZERO PUSH2 0x258E JUMPI PUSH1 0x0 MSTORE PUSH1 0x6 PUSH1 0x20 PUSH1 0x0 KECCAK256 SWAP2 MUL ADD SWAP1 PUSH1 0x0 SWAP1 JUMP JUMPDEST PUSH4 0x4E487B71 PUSH1 0xE0 SHL PUSH1 0x0 MSTORE PUSH1 0x32 PUSH1 0x4 MSTORE PUSH1 0x24 PUSH1 0x0 REVERT JUMPDEST PUSH1 0x0 SLOAD PUSH1 0x1 PUSH1 0x1 PUSH1 0xA0 SHL SUB AND CALLER SUB PUSH2 0x25B8 JUMPI JUMP JUMPDEST PUSH1 0x64 PUSH1 0x40 MLOAD PUSH3 0x461BCD PUSH1 0xE5 SHL DUP2 MSTORE PUSH1 0x20 PUSH1 0x4 DUP3 ADD MSTORE PUSH1 0x20 PUSH1 0x24 DUP3 ADD MSTORE PUSH32 0x4F776E61626C653A2063616C6C6572206973206E6F7420746865206F776E6572 PUSH1 0x44 DUP3 ADD MSTORE REVERT JUMPDEST ISZERO PUSH2 0x2603 JUMPI JUMP JUMPDEST PUSH1 0x40 MLOAD PUSH3 0x461BCD PUSH1 0xE5 SHL DUP2 MSTORE PUSH1 0x20 PUSH1 0x4 DUP3 ADD MSTORE PUSH1 0x18 PUSH1 0x24 DUP3 ADD MSTORE PUSH32 0x4C6F636174696F6E2063616E6E6F7420626520656D7074790000000000000000 PUSH1 0x44 DUP3 ADD MSTORE PUSH1 0x64 SWAP1 REVERT JUMPDEST DUP2 DUP2 LT PUSH2 0x2653 JUMPI POP POP JUMP JUMPDEST PUSH1 0x0 DUP2 SSTORE PUSH1 0x1 ADD PUSH2 0x2648 JUMP JUMPDEST SWAP2 SWAP1 PUSH1 0x1F DUP2 GT PUSH2 0x266E JUMPI POP POP POP JUMP JUMPDEST PUSH2 0x23E5 SWAP3 PUSH1 0x0 MSTORE PUSH1 0x20 PUSH1 0x0 KECCAK256 SWAP1 PUSH1 0x20 PUSH1 0x1F DUP5 ADD PUSH1 0x5 SHR DUP4 ADD SWAP4 LT PUSH2 0x269A JUMPI JUMPDEST PUSH1 0x1F ADD PUSH1 0x5 SHR ADD SWAP1 PUSH2 0x2648 JUMP JUMPDEST SWAP1 SWAP2 POP DUP2 SWAP1 PUSH2 0x268D JUMP JUMPDEST SWAP2 SWAP1 SWAP2 DUP3 MLOAD PUSH1 0x1 PUSH1 0x1 PUSH1 0x40 SHL SUB DUP2 GT PUSH2 0x2271 JUMPI PUSH2 0x26CB DUP2 PUSH2 0x26C5 DUP5 SLOAD PUSH2 0x236D JUMP JUMPDEST DUP5 PUSH2 0x265F JUMP JUMPDEST PUSH1 0x20 DUP1 PUSH1 0x1F DUP4 GT PUSH1 0x1 EQ PUSH2 0x2707 JUMPI POP DUP2 SWAP3 SWAP4 SWAP5 PUSH1 0x0 SWAP3 PUSH2 0x26FC JUMPI JUMPDEST POP POP DUP2 PUSH1 0x1 SHL SWAP2 PUSH1 0x0 NOT SWAP1 PUSH1 0x3 SHL SHR NOT AND OR SWAP1 SSTORE JUMP JUMPDEST ADD MLOAD SWAP1 POP CODESIZE DUP1 PUSH2 0x26E6 JUMP JUMPDEST SWAP1 PUSH1 0x1F NOT DUP4 AND SWAP6 DUP5 PUSH1 0x0 MSTORE DUP3 PUSH1 0x0 KECCAK256 SWAP3 PUSH1 0x0 SWAP1 JUMPDEST DUP9 DUP3 LT PUSH2 0x2753 JUMPI POP POP DUP4 PUSH1 0x1 SWAP6 SWAP7 SWAP8 LT PUSH2 0x273A JUMPI JUMPDEST POP POP POP DUP2 SHL ADD SWAP1 SSTORE JUMP JUMPDEST ADD MLOAD PUSH1 0x0 NOT PUSH1 0xF8 DUP5 PUSH1 0x3 SHL AND SHR NOT AND SWAP1 SSTORE CODESIZE DUP1 DUP1 PUSH2 0x2730 JUMP JUMPDEST DUP1 PUSH1 0x1 DUP6 SWAP7 DUP3 SWAP5 SWAP7 DUP7 ADD MLOAD DUP2 SSTORE ADD SWAP6 ADD SWAP4 ADD SWAP1 PUSH2 0x271B JUMP JUMPDEST ISZERO PUSH2 0x2772 JUMPI JUMP JUMPDEST PUSH1 0x40 MLOAD PUSH3 0x461BCD PUSH1 0xE5 SHL DUP2 MSTORE PUSH1 0x20 PUSH1 0x4 DUP3 ADD MSTORE PUSH1 0x1C PUSH1 0x24 DUP3 ADD MSTORE PUSH32 0x4E6F7420612072656769737465726564207061727469636970616E7400000000 PUSH1 0x44 DUP3 ADD MSTORE PUSH1 0x64 SWAP1 REVERT JUMPDEST ISZERO PUSH2 0x27BE JUMPI JUMP JUMPDEST PUSH1 0x40 MLOAD PUSH3 0x461BCD PUSH1 0xE5 SHL DUP2 MSTORE PUSH1 0x20 PUSH1 0x4 DUP3 ADD MSTORE PUSH1 0x11 PUSH1 0x24 DUP3 ADD MSTORE PUSH17 0x556E617574686F72697A656420726F6C65 PUSH1 0x78 SHL PUSH1 0x44 DUP3 ADD MSTORE PUSH1 0x64 SWAP1 REVERT JUMPDEST PUSH1 0x0 NOT DUP2 EQ PUSH2 0x2806 JUMPI PUSH1 0x1 ADD SWAP1 JUMP JUMPDEST PUSH4 0x4E487B71 PUSH1 0xE0 SHL PUSH1 0x0 MSTORE PUSH1 0x11 PUSH1 0x4 MSTORE PUSH1 0x24 PUSH1 0x0 REVERT JUMPDEST DUP1 SLOAD DUP3 LT ISZERO PUSH2 0x258E JUMPI PUSH1 0x0 MSTORE PUSH1 0x20 PUSH1 0x0 KECCAK256 ADD SWAP1 PUSH1 0x0 SWAP1 JUMP JUMPDEST DUP1 SLOAD PUSH1 0x1 PUSH1 0x40 SHL DUP2 LT ISZERO PUSH2 0x2271 JUMPI PUSH2 0x2851 SWAP2 PUSH1 0x1 DUP3 ADD DUP2 SSTORE PUSH2 0x281C JUMP JUMPDEST DUP2 SWAP3 SWAP2 SLOAD SWAP1 PUSH1 0x3 SHL SWAP2 PUSH1 0x1 DUP1 PUSH1 0xA0 SHL SUB DUP1 SWAP2 AND DUP4 SHL SWAP3 SHL NOT AND OR SWAP1 SSTORE JUMP JUMPDEST DUP1 SLOAD PUSH1 0x1 PUSH1 0x40 SHL DUP2 LT ISZERO PUSH2 0x2271 JUMPI PUSH2 0x288C SWAP2 PUSH1 0x1 DUP3 ADD DUP2 SSTORE PUSH2 0x281C JUMP JUMPDEST SWAP2 SWAP1 SWAP2 PUSH2 0x289C JUMPI PUSH2 0x23E5 SWAP2 PUSH2 0x26A4 JUMP JUMPDEST PUSH4 0x4E487B71 PUSH1 0xE0 SHL PUSH1 0x0 MSTORE PUSH1 0x0 PUSH1 0x4 MSTORE PUSH1 0x24 PUSH1 0x0 REVERT JUMPDEST DUP1 SLOAD PUSH1 0x1 PUSH1 0x40 SHL DUP2 LT ISZERO PUSH2 0x2271 JUMPI PUSH2 0x28CF SWAP2 PUSH1 0x1 DUP3 ADD DUP2 SSTORE PUSH2 0x281C JUMP JUMPDEST DUP2 SWAP3 SWAP2 SLOAD SWAP1 PUSH1 0x3 SHL SWAP2 DUP3 SHL SWAP2 PUSH1 0x0 NOT SWAP1 SHL NOT AND OR SWAP1 SSTORE JUMP JUMPDEST ISZERO PUSH2 0x28EE JUMPI JUMP JUMPDEST PUSH1 0x40 MLOAD PUSH3 0x461BCD PUSH1 0xE5 SHL DUP2 MSTORE PUSH1 0x20 PUSH1 0x4 DUP3 ADD MSTORE PUSH1 0x10 PUSH1 0x24 DUP3 ADD MSTORE PUSH16 0x125B9D985B1A590818985D18DA081251 PUSH1 0x82 SHL PUSH1 0x44 DUP3 ADD MSTORE PUSH1 0x64 SWAP1 REVERT JUMPDEST ISZERO PUSH2 0x292D JUMPI JUMP JUMPDEST PUSH1 0x40 MLOAD PUSH3 0x461BCD PUSH1 0xE5 SHL DUP2 MSTORE PUSH1 0x20 PUSH1 0x4 DUP3 ADD MSTORE PUSH1 0x15 PUSH1 0x24 DUP3 ADD MSTORE PUSH21 0x2737BA103A34329031BAB93932B73A1037BBB732B9 PUSH1 0x59 SHL PUSH1 0x44 DUP3 ADD MSTORE PUSH1 0x64 SWAP1 REVERT JUMPDEST PUSH1 0x0 SWAP3 SWAP2 DUP2 SLOAD PUSH2 0x2979 DUP2 PUSH2 0x236D JUMP JUMPDEST SWAP3 PUSH1 0x1 SWAP2 DUP1 DUP4 AND SWAP1 DUP2 ISZERO PUSH2 0x29D2 JUMPI POP PUSH1 0x1 EQ PUSH2 0x2996 JUMPI JUMPDEST POP POP POP POP JUMP JUMPDEST SWAP1 SWAP2 SWAP3 SWAP4 SWAP5 POP PUSH1 0x0 MSTORE PUSH1 0x20 SWAP1 DUP2 PUSH1 0x0 KECCAK256 SWAP1 PUSH1 0x0 SWAP2 JUMPDEST DUP6 DUP4 LT PUSH2 0x29C1 JUMPI POP POP POP POP ADD SWAP1 CODESIZE DUP1 DUP1 DUP1 PUSH2 0x2990 JUMP JUMPDEST DUP1 SLOAD DUP6 DUP5 ADD MSTORE SWAP2 DUP4 ADD SWAP2 DUP2 ADD PUSH2 0x29AB JUMP JUMPDEST PUSH1 0xFF NOT AND DUP5 MSTORE POP POP POP DUP2 ISZERO ISZERO SWAP1 SWAP2 MUL ADD SWAP2 POP CODESIZE DUP1 DUP1 DUP1 PUSH2 0x2990 JUMP JUMPDEST SWAP1 DUP1 DUP3 EQ PUSH2 0x2AC5 JUMPI PUSH2 0x29FF DUP2 SLOAD PUSH2 0x236D JUMP JUMPDEST SWAP1 PUSH1 0x1 PUSH1 0x1 PUSH1 0x40 SHL SUB DUP3 GT PUSH2 0x2271 JUMPI DUP2 SWAP1 PUSH2 0x2A24 DUP3 PUSH2 0x2A1E DUP7 SLOAD PUSH2 0x236D JUMP JUMPDEST DUP7 PUSH2 0x265F JUMP JUMPDEST PUSH1 0x0 SWAP1 PUSH1 0x1F DUP4 GT PUSH1 0x1 EQ PUSH2 0x2A5A JUMPI PUSH1 0x0 SWAP3 PUSH2 0x2A4F JUMPI POP POP DUP2 PUSH1 0x1 SHL SWAP2 PUSH1 0x0 NOT SWAP1 PUSH1 0x3 SHL SHR NOT AND OR SWAP1 SSTORE JUMP JUMPDEST ADD SLOAD SWAP1 POP CODESIZE DUP1 PUSH2 0x26E6 JUMP JUMPDEST DUP2 MSTORE PUSH1 0x20 DUP1 DUP3 KECCAK256 DUP6 DUP4 MSTORE DUP2 DUP4 KECCAK256 SWAP4 POP SWAP1 PUSH1 0x1F NOT DUP6 AND SWAP1 DUP4 SWAP1 JUMPDEST DUP3 DUP3 LT PUSH2 0x2AAC JUMPI POP POP SWAP1 DUP5 PUSH1 0x1 SWAP6 SWAP5 SWAP4 SWAP3 LT PUSH2 0x2A93 JUMPI POP POP POP DUP2 SHL ADD SWAP1 SSTORE JUMP JUMPDEST ADD SLOAD PUSH1 0x0 NOT PUSH1 0xF8 DUP5 PUSH1 0x3 SHL AND SHR NOT AND SWAP1 SSTORE CODESIZE DUP1 DUP1 PUSH2 0x2730 JUMP JUMPDEST DUP5 SWAP6 DUP2 SWAP3 SWAP6 DUP6 ADD SLOAD DUP2 SSTORE PUSH1 0x1 DUP1 SWAP2 ADD SWAP7 ADD SWAP5 ADD SWAP1 PUSH2 0x2A73 JUMP JUMPDEST POP POP JUMP JUMPDEST SWAP1 PUSH1 0x40 MLOAD SWAP2 DUP3 DUP2 SLOAD SWAP2 DUP3 DUP3 MSTORE PUSH1 0x20 SWAP3 DUP4 DUP4 ADD SWAP2 PUSH1 0x0 MSTORE DUP4 PUSH1 0x0 KECCAK256 SWAP4 PUSH1 0x0 SWAP1 JUMPDEST DUP3 DUP3 LT PUSH2 0x2AFE JUMPI POP POP POP PUSH2 0x23E5 SWAP3 POP SUB DUP4 PUSH2 0x22A2 JUMP JUMPDEST DUP6 SLOAD PUSH1 0x1 PUSH1 0x1 PUSH1 0xA0 SHL SUB AND DUP5 MSTORE PUSH1 0x1 SWAP6 DUP7 ADD SWAP6 DUP9 SWAP6 POP SWAP4 DUP2 ADD SWAP4 SWAP1 SWAP2 ADD SWAP1 PUSH2 0x2AE8 JUMP JUMPDEST SWAP1 DUP2 SLOAD PUSH2 0x2B2D DUP2 PUSH2 0x2492 JUMP JUMPDEST SWAP3 PUSH2 0x2B3B PUSH1 0x40 MLOAD SWAP5 DUP6 PUSH2 0x22A2 JUMP JUMPDEST DUP2 DUP5 MSTORE PUSH1 0x0 SWAP1 DUP2 MSTORE PUSH1 0x20 DUP1 DUP3 KECCAK256 DUP2 DUP7 ADD JUMPDEST DUP5 DUP5 LT PUSH2 0x2B5A JUMPI POP POP POP POP POP JUMP JUMPDEST PUSH1 0x1 DUP4 DUP2 SWAP3 PUSH2 0x2B68 DUP6 PUSH2 0x23A7 JUMP JUMPDEST DUP2 MSTORE ADD SWAP3 ADD SWAP4 ADD SWAP3 SWAP1 PUSH2 0x2B4C JUMP JUMPDEST SWAP1 PUSH1 0x40 MLOAD SWAP2 DUP3 DUP2 SLOAD SWAP2 DUP3 DUP3 MSTORE PUSH1 0x20 SWAP3 DUP4 DUP4 ADD SWAP2 PUSH1 0x0 MSTORE DUP4 PUSH1 0x0 KECCAK256 SWAP4 PUSH1 0x0 SWAP1 JUMPDEST DUP3 DUP3 LT PUSH2 0x2BAB JUMPI POP POP POP PUSH2 0x23E5 SWAP3 POP SUB DUP4 PUSH2 0x22A2 JUMP JUMPDEST DUP6 SLOAD DUP5 MSTORE PUSH1 0x1 SWAP6 DUP7 ADD SWAP6 DUP9 SWAP6 POP SWAP4 DUP2 ADD SWAP4 SWAP1 SWAP2 ADD SWAP1 PUSH2 0x2B95 JUMP JUMPDEST PUSH1 0x40 MLOAD SWAP1 PUSH2 0x2BD2 DUP3 PUSH2 0x2287 JUMP JUMPDEST PUSH1 0x7 DUP3 MSTORE PUSH7 0x2AB735B737BBB7 PUSH1 0xC9 SHL PUSH1 0x20 DUP4 ADD MSTORE JUMP JUMPDEST PUSH2 0x2BF1 DUP2 PUSH2 0x2472 JUMP JUMPDEST DUP1 ISZERO PUSH2 0x2C94 JUMPI PUSH2 0x2C00 DUP2 PUSH2 0x2472 JUMP JUMPDEST PUSH1 0x1 DUP2 EQ PUSH2 0x2C73 JUMPI PUSH2 0x2C11 DUP2 PUSH2 0x2472 JUMP JUMPDEST PUSH1 0x2 DUP2 EQ PUSH2 0x2C52 JUMPI DUP1 PUSH2 0x2C25 PUSH1 0x3 SWAP3 PUSH2 0x2472 JUMP JUMPDEST EQ PUSH2 0x2C32 JUMPI PUSH2 0x2506 PUSH2 0x2BC5 JUMP JUMPDEST PUSH1 0x40 MLOAD PUSH2 0x2C3E DUP2 PUSH2 0x2287 JUMP JUMPDEST PUSH1 0x4 DUP2 MSTORE PUSH4 0x2837B7B9 PUSH1 0xE1 SHL PUSH1 0x20 DUP3 ADD MSTORE SWAP1 JUMP JUMPDEST POP PUSH1 0x40 MLOAD PUSH2 0x2C5F DUP2 PUSH2 0x2287 JUMP JUMPDEST PUSH1 0x4 DUP2 MSTORE PUSH4 0x2330B4B9 PUSH1 0xE1 SHL PUSH1 0x20 DUP3 ADD MSTORE SWAP1 JUMP JUMPDEST POP PUSH1 0x40 MLOAD PUSH2 0x2C80 DUP2 PUSH2 0x2287 JUMP JUMPDEST PUSH1 0x4 DUP2 MSTORE PUSH4 0x11DBDBD9 PUSH1 0xE2 SHL PUSH1 0x20 DUP3 ADD MSTORE SWAP1 JUMP JUMPDEST POP PUSH1 0x40 MLOAD PUSH2 0x2CA1 DUP2 PUSH2 0x2287 JUMP JUMPDEST PUSH1 0x9 DUP2 MSTORE PUSH9 0x115E18D95B1B195B9D PUSH1 0xBA SHL PUSH1 0x20 DUP3 ADD MSTORE SWAP1 JUMP JUMPDEST PUSH1 0x5 DUP2 LT ISZERO PUSH2 0x247C JUMPI DUP1 ISZERO PUSH2 0x2D83 JUMPI PUSH1 0x1 DUP2 EQ PUSH2 0x2D5D JUMPI PUSH1 0x2 DUP2 EQ PUSH2 0x2D36 JUMPI PUSH1 0x3 DUP2 EQ PUSH2 0x2D10 JUMPI PUSH1 0x4 EQ PUSH2 0x2CF0 JUMPI PUSH2 0x2506 PUSH2 0x2BC5 JUMP JUMPDEST PUSH1 0x40 MLOAD PUSH2 0x2CFC DUP2 PUSH2 0x2287 JUMP JUMPDEST PUSH1 0x4 DUP2 MSTORE PUSH4 0x14DBDB19 PUSH1 0xE2 SHL PUSH1 0x20 DUP3 ADD MSTORE SWAP1 JUMP JUMPDEST POP PUSH1 0x40 MLOAD PUSH2 0x2D1D DUP2 PUSH2 0x2287 JUMP JUMPDEST PUSH1 0x9 DUP2 MSTORE PUSH9 0x11195B1A5D995C9959 PUSH1 0xBA SHL PUSH1 0x20 DUP3 ADD MSTORE SWAP1 JUMP JUMPDEST POP PUSH1 0x40 MLOAD PUSH2 0x2D43 DUP2 PUSH2 0x2287 JUMP JUMPDEST PUSH1 0xA DUP2 MSTORE PUSH10 0x125B88151C985B9CDA5D PUSH1 0xB2 SHL PUSH1 0x20 DUP3 ADD MSTORE SWAP1 JUMP JUMPDEST POP PUSH1 0x40 MLOAD PUSH2 0x2D6A DUP2 PUSH2 0x2287 JUMP JUMPDEST PUSH1 0x9 DUP2 MSTORE PUSH9 0x141C9BD8D95CDCD959 PUSH1 0xBA SHL PUSH1 0x20 DUP3 ADD MSTORE SWAP1 JUMP JUMPDEST POP PUSH1 0x40 MLOAD PUSH2 0x2D90 DUP2 PUSH2 0x2287 JUMP JUMPDEST PUSH1 0x9 DUP2 MSTORE PUSH9 0x12185C9D995CDD1959 PUSH1 0xBA SHL PUSH1 0x20 DUP3 ADD MSTORE SWAP1 JUMP JUMPDEST PUSH2 0x2DB2 DUP2 PUSH2 0x2472 JUMP JUMPDEST DUP1 ISZERO PUSH2 0x2E64 JUMPI PUSH2 0x2DC1 DUP2 PUSH2 0x2472 JUMP JUMPDEST PUSH1 0x1 DUP2 EQ PUSH2 0x2E3F JUMPI PUSH2 0x2DD2 DUP2 PUSH2 0x2472 JUMP JUMPDEST PUSH1 0x2 DUP2 EQ PUSH2 0x2E17 JUMPI DUP1 PUSH2 0x2DE6 PUSH1 0x3 SWAP3 PUSH2 0x2472 JUMP JUMPDEST EQ PUSH2 0x2DF3 JUMPI PUSH2 0x2506 PUSH2 0x2BC5 JUMP JUMPDEST PUSH1 0x40 MLOAD PUSH2 0x2DFF DUP2 PUSH2 0x2287 JUMP JUMPDEST PUSH1 0x8 DUP2 MSTORE PUSH8 0x2932BA30B4B632B9 PUSH1 0xC1 SHL PUSH1 0x20 DUP3 ADD MSTORE SWAP1 JUMP JUMPDEST POP PUSH1 0x40 MLOAD PUSH2 0x2E24 DUP2 PUSH2 0x2287 JUMP JUMPDEST PUSH1 0xB DUP2 MSTORE PUSH11 0x2234B9BA3934B13ABA37B9 PUSH1 0xA9 SHL PUSH1 0x20 DUP3 ADD MSTORE SWAP1 JUMP JUMPDEST POP PUSH1 0x40 MLOAD PUSH2 0x2E4C DUP2 PUSH2 0x2287 JUMP JUMPDEST PUSH1 0x8 DUP2 MSTORE PUSH8 0x29BAB8383634B2B9 PUSH1 0xC1 SHL PUSH1 0x20 DUP3 ADD MSTORE SWAP1 JUMP JUMPDEST POP PUSH1 0x40 MLOAD PUSH2 0x2E71 DUP2 PUSH2 0x2287 JUMP JUMPDEST PUSH1 0x6 DUP2 MSTORE PUSH6 0x2330B936B2B9 PUSH1 0xD1 SHL PUSH1 0x20 DUP3 ADD MSTORE SWAP1 JUMP INVALID LOG2 PUSH5 0x6970667358 0x22 SLT KECCAK256 0xE1 DUP3 SWAP9 0xE7 0xCE PUSH25 0x74A487DEB72E0301207C53CD2E62643CDFD0E48D41FC7BE944 SHR PUSH5 0x736F6C6343 STOP ADDMOD SGT STOP CALLER "},"methodIdentifiers":{"addBatchNote(uint256,string)":"5c8a3d3d","batchEnvironmentData(uint256,uint256)":"a3844977","batches(uint256)":"b32c4d8d","completeTransaction(uint256)":"f5e83e17","createBatch(uint256,string,string)":"ccc541ac","createProduct(string,string,uint256,string,bool,string[])":"219fa929","createTransaction(uint256,address,uint256,string)":"0e7dce82","deactivateParticipant(address)":"de97b81c","getBatchByQR(string)":"3c3f4ac1","getBatchDetails(uint256)":"9d47dcc0","getBatchHistory(uint256)":"c7a8ccb1","getEnvironmentData(uint256,uint256)":"236c0201","getEnvironmentDataCount(uint256)":"7b72b529","getProductInfo(uint256)":"79a85e6c","getRoleString(uint8)":"3f3c0a58","getStageString(uint8)":"ffd8ddb0","nextBatchId()":"8462a7f8","nextProductId()":"4de91a63","nextTransactionId()":"d7ca38f3","owner()":"8da5cb5b","participants(address)":"09e69ede","pause()":"8456cb59","products(uint256)":"7acc0b20","qrCodeToBatch(string)":"09c9a6fa","recordEnvironmentData(uint256,int256,uint256,string,string)":"969da0c7","registerParticipant(string,string,uint8)":"b56ced51","renounceOwnership()":"715018a6","transactions(uint256)":"9ace38c2","transferBatchOwnership(uint256,address,uint8,string)":"0fd599ca","transferOwnership(address)":"f2fde38b","unpause()":"3f4ba83a","updateParticipantReputation(address,uint256)":"abb326b9","updateQuality(uint256,uint8,string)":"771526da"}}}}}